{
	"contracts/SendMoneyExample.sol": {
		"SendMoneyExample": {
			"abi": [
				{
					"constant": true,
					"inputs": [],
					"name": "balanceRecieved",
					"outputs": [
						{
							"internalType": "uint256",
							"name": "",
							"type": "uint256"
						}
					],
					"payable": false,
					"stateMutability": "view",
					"type": "function"
				},
				{
					"constant": true,
					"inputs": [],
					"name": "getBalance",
					"outputs": [
						{
							"internalType": "uint256",
							"name": "",
							"type": "uint256"
						}
					],
					"payable": false,
					"stateMutability": "view",
					"type": "function"
				},
				{
					"constant": false,
					"inputs": [],
					"name": "recieveMoney",
					"outputs": [],
					"payable": true,
					"stateMutability": "payable",
					"type": "function"
				}
			],
			"devdoc": {
				"methods": {}
			},
			"evm": {
				"assembly": "    /* \"contracts/SendMoneyExample.sol\":28:298  contract SendMoneyExample {\r... */\n  mstore(0x40, 0x80)\n  callvalue\n    /* \"--CODEGEN--\":8:17   */\n  dup1\n    /* \"--CODEGEN--\":5:7   */\n  iszero\n  tag_1\n  jumpi\n    /* \"--CODEGEN--\":30:31   */\n  0x00\n    /* \"--CODEGEN--\":27:28   */\n  dup1\n    /* \"--CODEGEN--\":20:32   */\n  revert\n    /* \"--CODEGEN--\":5:7   */\ntag_1:\n    /* \"contracts/SendMoneyExample.sol\":28:298  contract SendMoneyExample {\r... */\n  pop\n  dataSize(sub_0)\n  dup1\n  dataOffset(sub_0)\n  0x00\n  codecopy\n  0x00\n  return\nstop\n\nsub_0: assembly {\n        /* \"contracts/SendMoneyExample.sol\":28:298  contract SendMoneyExample {\r... */\n      mstore(0x40, 0x80)\n      jumpi(tag_1, lt(calldatasize, 0x04))\n      shr(0xe0, calldataload(0x00))\n      dup1\n      0x12065fe0\n      eq\n      tag_2\n      jumpi\n      dup1\n      0xcca955a0\n      eq\n      tag_3\n      jumpi\n      dup1\n      0xd4c06b8d\n      eq\n      tag_4\n      jumpi\n    tag_1:\n      0x00\n      dup1\n      revert\n        /* \"contracts/SendMoneyExample.sol\":200:295  function getBalance() public view returns(uint) {\r... */\n    tag_2:\n      callvalue\n        /* \"--CODEGEN--\":8:17   */\n      dup1\n        /* \"--CODEGEN--\":5:7   */\n      iszero\n      tag_5\n      jumpi\n        /* \"--CODEGEN--\":30:31   */\n      0x00\n        /* \"--CODEGEN--\":27:28   */\n      dup1\n        /* \"--CODEGEN--\":20:32   */\n      revert\n        /* \"--CODEGEN--\":5:7   */\n    tag_5:\n        /* \"contracts/SendMoneyExample.sol\":200:295  function getBalance() public view returns(uint) {\r... */\n      pop\n      tag_6\n      tag_7\n      jump\t// in\n    tag_6:\n      mload(0x40)\n      dup1\n      dup3\n      dup2\n      mstore\n      0x20\n      add\n      swap2\n      pop\n      pop\n      mload(0x40)\n      dup1\n      swap2\n      sub\n      swap1\n      return\n        /* \"contracts/SendMoneyExample.sol\":107:192  function recieveMoney() public payable{\r... */\n    tag_3:\n      tag_8\n      tag_9\n      jump\t// in\n    tag_8:\n      stop\n        /* \"contracts/SendMoneyExample.sol\":67:94  uint public balanceRecieved */\n    tag_4:\n      callvalue\n        /* \"--CODEGEN--\":8:17   */\n      dup1\n        /* \"--CODEGEN--\":5:7   */\n      iszero\n      tag_10\n      jumpi\n        /* \"--CODEGEN--\":30:31   */\n      0x00\n        /* \"--CODEGEN--\":27:28   */\n      dup1\n        /* \"--CODEGEN--\":20:32   */\n      revert\n        /* \"--CODEGEN--\":5:7   */\n    tag_10:\n        /* \"contracts/SendMoneyExample.sol\":67:94  uint public balanceRecieved */\n      pop\n      tag_11\n      tag_12\n      jump\t// in\n    tag_11:\n      mload(0x40)\n      dup1\n      dup3\n      dup2\n      mstore\n      0x20\n      add\n      swap2\n      pop\n      pop\n      mload(0x40)\n      dup1\n      swap2\n      sub\n      swap1\n      return\n        /* \"contracts/SendMoneyExample.sol\":200:295  function getBalance() public view returns(uint) {\r... */\n    tag_7:\n        /* \"contracts/SendMoneyExample.sol\":242:246  uint */\n      0x00\n        /* \"contracts/SendMoneyExample.sol\":266:287  address(this).balance */\n      selfbalance\n        /* \"contracts/SendMoneyExample.sol\":259:287  return address(this).balance */\n      swap1\n      pop\n        /* \"contracts/SendMoneyExample.sol\":200:295  function getBalance() public view returns(uint) {\r... */\n      swap1\n      jump\t// out\n        /* \"contracts/SendMoneyExample.sol\":107:192  function recieveMoney() public payable{\r... */\n    tag_9:\n        /* \"contracts/SendMoneyExample.sol\":175:184  msg.value */\n      callvalue\n        /* \"contracts/SendMoneyExample.sol\":156:171  balanceRecieved */\n      0x00\n      dup1\n        /* \"contracts/SendMoneyExample.sol\":156:184  balanceRecieved += msg.value */\n      dup3\n      dup3\n      sload\n      add\n      swap3\n      pop\n      pop\n      dup2\n      swap1\n      sstore\n      pop\n        /* \"contracts/SendMoneyExample.sol\":107:192  function recieveMoney() public payable{\r... */\n      jump\t// out\n        /* \"contracts/SendMoneyExample.sol\":67:94  uint public balanceRecieved */\n    tag_12:\n      sload(0x00)\n      dup2\n      jump\t// out\n\n    auxdata: 0xa265627a7a723158208ddfd8444749ac858895f59f2a624ede0bc69f530134523835709cef8e3102ee64736f6c63430005110032\n}\n",
				"bytecode": {
					"linkReferences": {},
					"object": "608060405234801561001057600080fd5b5060e18061001f6000396000f3fe60806040526004361060305760003560e01c806312065fe0146035578063cca955a014605d578063d4c06b8d146065575b600080fd5b348015604057600080fd5b506047608d565b6040518082815260200191505060405180910390f35b60636095565b005b348015607057600080fd5b50607760a6565b6040518082815260200191505060405180910390f35b600047905090565b346000808282540192505081905550565b6000548156fea265627a7a723158208ddfd8444749ac858895f59f2a624ede0bc69f530134523835709cef8e3102ee64736f6c63430005110032",
					"opcodes": "PUSH1 0x80 PUSH1 0x40 MSTORE CALLVALUE DUP1 ISZERO PUSH2 0x10 JUMPI PUSH1 0x0 DUP1 REVERT JUMPDEST POP PUSH1 0xE1 DUP1 PUSH2 0x1F PUSH1 0x0 CODECOPY PUSH1 0x0 RETURN INVALID PUSH1 0x80 PUSH1 0x40 MSTORE PUSH1 0x4 CALLDATASIZE LT PUSH1 0x30 JUMPI PUSH1 0x0 CALLDATALOAD PUSH1 0xE0 SHR DUP1 PUSH4 0x12065FE0 EQ PUSH1 0x35 JUMPI DUP1 PUSH4 0xCCA955A0 EQ PUSH1 0x5D JUMPI DUP1 PUSH4 0xD4C06B8D EQ PUSH1 0x65 JUMPI JUMPDEST PUSH1 0x0 DUP1 REVERT JUMPDEST CALLVALUE DUP1 ISZERO PUSH1 0x40 JUMPI PUSH1 0x0 DUP1 REVERT JUMPDEST POP PUSH1 0x47 PUSH1 0x8D JUMP JUMPDEST PUSH1 0x40 MLOAD DUP1 DUP3 DUP2 MSTORE PUSH1 0x20 ADD SWAP2 POP POP PUSH1 0x40 MLOAD DUP1 SWAP2 SUB SWAP1 RETURN JUMPDEST PUSH1 0x63 PUSH1 0x95 JUMP JUMPDEST STOP JUMPDEST CALLVALUE DUP1 ISZERO PUSH1 0x70 JUMPI PUSH1 0x0 DUP1 REVERT JUMPDEST POP PUSH1 0x77 PUSH1 0xA6 JUMP JUMPDEST PUSH1 0x40 MLOAD DUP1 DUP3 DUP2 MSTORE PUSH1 0x20 ADD SWAP2 POP POP PUSH1 0x40 MLOAD DUP1 SWAP2 SUB SWAP1 RETURN JUMPDEST PUSH1 0x0 SELFBALANCE SWAP1 POP SWAP1 JUMP JUMPDEST CALLVALUE PUSH1 0x0 DUP1 DUP3 DUP3 SLOAD ADD SWAP3 POP POP DUP2 SWAP1 SSTORE POP JUMP JUMPDEST PUSH1 0x0 SLOAD DUP2 JUMP INVALID LOG2 PUSH6 0x627A7A723158 KECCAK256 DUP14 0xDF 0xD8 DIFFICULTY SELFBALANCE 0x49 0xAC DUP6 DUP9 SWAP6 CREATE2 SWAP16 0x2A PUSH3 0x4EDE0B 0xC6 SWAP16 MSTORE8 ADD CALLVALUE MSTORE CODESIZE CALLDATALOAD PUSH17 0x9CEF8E3102EE64736F6C63430005110032 "
				},
				"gasEstimates": {
					"creation": {
						"codeDepositCost": "45000",
						"executionCost": "99",
						"totalCost": "45099"
					},
					"external": {
						"balanceRecieved()": "1027",
						"getBalance()": "193",
						"recieveMoney()": "20952"
					}
				},
				"methodIdentifiers": {
					"balanceRecieved()": "d4c06b8d",
					"getBalance()": "12065fe0",
					"recieveMoney()": "cca955a0"
				}
			},
			"userdoc": {
				"methods": {}
			}
		}
	}
}