{
	"contracts/WalletProject.sol": {
		"SimpleWallet": {
			"abi": [
				{
					"anonymous": false,
					"inputs": [
						{
							"indexed": true,
							"internalType": "address",
							"name": "_forWho",
							"type": "address"
						},
						{
							"indexed": true,
							"internalType": "address",
							"name": "_fromWhom",
							"type": "address"
						},
						{
							"indexed": false,
							"internalType": "uint256",
							"name": "_oldAmount",
							"type": "uint256"
						},
						{
							"indexed": false,
							"internalType": "uint256",
							"name": "_newAmount",
							"type": "uint256"
						}
					],
					"name": "AllowanceChanged",
					"type": "event"
				},
				{
					"anonymous": false,
					"inputs": [
						{
							"indexed": true,
							"internalType": "address",
							"name": "_from",
							"type": "address"
						},
						{
							"indexed": false,
							"internalType": "uint256",
							"name": "_amount",
							"type": "uint256"
						}
					],
					"name": "MoneyRecieved",
					"type": "event"
				},
				{
					"anonymous": false,
					"inputs": [
						{
							"indexed": true,
							"internalType": "address",
							"name": "_beneficiary",
							"type": "address"
						},
						{
							"indexed": false,
							"internalType": "uint256",
							"name": "_amount",
							"type": "uint256"
						}
					],
					"name": "MoneySent",
					"type": "event"
				},
				{
					"inputs": [
						{
							"internalType": "address",
							"name": "",
							"type": "address"
						}
					],
					"name": "allowance",
					"outputs": [
						{
							"internalType": "uint256",
							"name": "",
							"type": "uint256"
						}
					],
					"stateMutability": "view",
					"type": "function"
				},
				{
					"inputs": [],
					"name": "getBalance",
					"outputs": [
						{
							"internalType": "uint256",
							"name": "",
							"type": "uint256"
						}
					],
					"stateMutability": "view",
					"type": "function"
				},
				{
					"inputs": [],
					"name": "owner",
					"outputs": [
						{
							"internalType": "address",
							"name": "",
							"type": "address"
						}
					],
					"stateMutability": "view",
					"type": "function"
				},
				{
					"inputs": [],
					"name": "recieveMoney",
					"outputs": [],
					"stateMutability": "payable",
					"type": "function"
				},
				{
					"inputs": [
						{
							"internalType": "address",
							"name": "_who",
							"type": "address"
						},
						{
							"internalType": "uint256",
							"name": "_amount",
							"type": "uint256"
						}
					],
					"name": "setAllowance",
					"outputs": [],
					"stateMutability": "nonpayable",
					"type": "function"
				},
				{
					"inputs": [
						{
							"internalType": "address payable",
							"name": "_to",
							"type": "address"
						},
						{
							"internalType": "uint256",
							"name": "_amount",
							"type": "uint256"
						}
					],
					"name": "withdrawMoney",
					"outputs": [],
					"stateMutability": "nonpayable",
					"type": "function"
				}
			],
			"devdoc": {
				"kind": "dev",
				"methods": {},
				"version": 1
			},
			"evm": {
				"assembly": "    /* \"contracts/WalletProject.sol\":53:807  contract SimpleWallet is Allowance {... */\n  mstore(0x40, 0x80)\n  callvalue\n  dup1\n  iszero\n  tag_1\n  jumpi\n  0x00\n  dup1\n  revert\ntag_1:\n  pop\n    /* \"contracts/Allowance.sol\":491:501  msg.sender */\n  caller\n    /* \"contracts/Allowance.sol\":483:488  owner */\n  0x00\n  dup1\n    /* \"contracts/Allowance.sol\":483:501  owner = msg.sender */\n  0x0100\n  exp\n  dup2\n  sload\n  dup2\n  0xffffffffffffffffffffffffffffffffffffffff\n  mul\n  not\n  and\n  swap1\n  dup4\n  0xffffffffffffffffffffffffffffffffffffffff\n  and\n  mul\n  or\n  swap1\n  sstore\n  pop\n    /* \"contracts/WalletProject.sol\":53:807  contract SimpleWallet is Allowance {... */\n  dataSize(sub_0)\n  dup1\n  dataOffset(sub_0)\n  0x00\n  codecopy\n  0x00\n  return\nstop\n\nsub_0: assembly {\n        /* \"contracts/WalletProject.sol\":53:807  contract SimpleWallet is Allowance {... */\n      mstore(0x40, 0x80)\n      jumpi(tag_1, lt(calldatasize, 0x04))\n      shr(0xe0, calldataload(0x00))\n      dup1\n      0x12065fe0\n      eq\n      tag_2\n      jumpi\n      dup1\n      0x310ec4a7\n      eq\n      tag_3\n      jumpi\n      dup1\n      0x3e5beab9\n      eq\n      tag_4\n      jumpi\n      dup1\n      0x8da5cb5b\n      eq\n      tag_5\n      jumpi\n      dup1\n      0xcca955a0\n      eq\n      tag_6\n      jumpi\n      dup1\n      0xf274c897\n      eq\n      tag_7\n      jumpi\n    tag_1:\n      0x00\n      dup1\n      revert\n        /* \"contracts/WalletProject.sol\":231:326  function getBalance() public view returns(uint) {... */\n    tag_2:\n      callvalue\n      dup1\n      iszero\n      tag_8\n      jumpi\n      0x00\n      dup1\n      revert\n    tag_8:\n      pop\n      tag_9\n      tag_10\n      jump\t// in\n    tag_9:\n      mload(0x40)\n      tag_11\n      swap2\n      swap1\n      tag_12\n      jump\t// in\n    tag_11:\n      mload(0x40)\n      dup1\n      swap2\n      sub\n      swap1\n      return\n        /* \"contracts/Allowance.sol\":681:865  function setAllowance(address _who, uint _amount) public onlyOwner {... */\n    tag_3:\n      callvalue\n      dup1\n      iszero\n      tag_13\n      jumpi\n      0x00\n      dup1\n      revert\n    tag_13:\n      pop\n      tag_14\n      0x04\n      dup1\n      calldatasize\n      sub\n      dup2\n      add\n      swap1\n      tag_15\n      swap2\n      swap1\n      tag_16\n      jump\t// in\n    tag_15:\n      tag_17\n      jump\t// in\n    tag_14:\n      stop\n        /* \"contracts/Allowance.sol\":515:557  mapping (address => uint) public allowance */\n    tag_4:\n      callvalue\n      dup1\n      iszero\n      tag_18\n      jumpi\n      0x00\n      dup1\n      revert\n    tag_18:\n      pop\n      tag_19\n      0x04\n      dup1\n      calldatasize\n      sub\n      dup2\n      add\n      swap1\n      tag_20\n      swap2\n      swap1\n      tag_21\n      jump\t// in\n    tag_20:\n      tag_22\n      jump\t// in\n    tag_19:\n      mload(0x40)\n      tag_23\n      swap2\n      swap1\n      tag_12\n      jump\t// in\n    tag_23:\n      mload(0x40)\n      dup1\n      swap2\n      sub\n      swap1\n      return\n        /* \"contracts/Allowance.sol\":425:445  address public owner */\n    tag_5:\n      callvalue\n      dup1\n      iszero\n      tag_24\n      jumpi\n      0x00\n      dup1\n      revert\n    tag_24:\n      pop\n      tag_25\n      tag_26\n      jump\t// in\n    tag_25:\n      mload(0x40)\n      tag_27\n      swap2\n      swap1\n      tag_28\n      jump\t// in\n    tag_27:\n      mload(0x40)\n      dup1\n      swap2\n      sub\n      swap1\n      return\n        /* \"contracts/WalletProject.sol\":707:802  function recieveMoney() public payable {... */\n    tag_6:\n      tag_29\n      tag_30\n      jump\t// in\n    tag_29:\n      stop\n        /* \"contracts/WalletProject.sol\":335:698  function withdrawMoney(address payable _to, uint _amount) public ownerOrAllowed(_amount) {... */\n    tag_7:\n      callvalue\n      dup1\n      iszero\n      tag_31\n      jumpi\n      0x00\n      dup1\n      revert\n    tag_31:\n      pop\n      tag_32\n      0x04\n      dup1\n      calldatasize\n      sub\n      dup2\n      add\n      swap1\n      tag_33\n      swap2\n      swap1\n      tag_34\n      jump\t// in\n    tag_33:\n      tag_35\n      jump\t// in\n    tag_32:\n      stop\n        /* \"contracts/WalletProject.sol\":231:326  function getBalance() public view returns(uint) {... */\n    tag_10:\n        /* \"contracts/WalletProject.sol\":273:277  uint */\n      0x00\n        /* \"contracts/WalletProject.sol\":297:318  address(this).balance */\n      selfbalance\n        /* \"contracts/WalletProject.sol\":290:318  return address(this).balance */\n      swap1\n      pop\n        /* \"contracts/WalletProject.sol\":231:326  function getBalance() public view returns(uint) {... */\n      swap1\n      jump\t// out\n        /* \"contracts/Allowance.sol\":681:865  function setAllowance(address _who, uint _amount) public onlyOwner {... */\n    tag_17:\n        /* \"contracts/Allowance.sol\":618:628  msg.sender */\n      caller\n        /* \"contracts/Allowance.sol\":609:628  owner == msg.sender */\n      0xffffffffffffffffffffffffffffffffffffffff\n      and\n        /* \"contracts/Allowance.sol\":609:614  owner */\n      0x00\n      dup1\n      sload\n      swap1\n      0x0100\n      exp\n      swap1\n      div\n      0xffffffffffffffffffffffffffffffffffffffff\n      and\n        /* \"contracts/Allowance.sol\":609:628  owner == msg.sender */\n      0xffffffffffffffffffffffffffffffffffffffff\n      and\n      eq\n        /* \"contracts/Allowance.sol\":601:653  require(owner == msg.sender,\"You are not the owner\") */\n      tag_38\n      jumpi\n      mload(0x40)\n      0x08c379a000000000000000000000000000000000000000000000000000000000\n      dup2\n      mstore\n      0x04\n      add\n      tag_39\n      swap1\n      tag_40\n      jump\t// in\n    tag_39:\n      mload(0x40)\n      dup1\n      swap2\n      sub\n      swap1\n      revert\n    tag_38:\n        /* \"contracts/Allowance.sol\":786:796  msg.sender */\n      caller\n        /* \"contracts/Allowance.sol\":764:821  AllowanceChanged(_who,msg.sender,allowance[_who],_amount) */\n      0xffffffffffffffffffffffffffffffffffffffff\n      and\n        /* \"contracts/Allowance.sol\":781:785  _who */\n      dup3\n        /* \"contracts/Allowance.sol\":764:821  AllowanceChanged(_who,msg.sender,allowance[_who],_amount) */\n      0xffffffffffffffffffffffffffffffffffffffff\n      and\n      0x3691d1a86d99355e52b689ca70a7bdf6d80763237a6aa06e5fa43964eac7244b\n        /* \"contracts/Allowance.sol\":797:806  allowance */\n      0x01\n        /* \"contracts/Allowance.sol\":797:812  allowance[_who] */\n      0x00\n        /* \"contracts/Allowance.sol\":807:811  _who */\n      dup7\n        /* \"contracts/Allowance.sol\":797:812  allowance[_who] */\n      0xffffffffffffffffffffffffffffffffffffffff\n      and\n      0xffffffffffffffffffffffffffffffffffffffff\n      and\n      dup2\n      mstore\n      0x20\n      add\n      swap1\n      dup2\n      mstore\n      0x20\n      add\n      0x00\n      keccak256\n      sload\n        /* \"contracts/Allowance.sol\":813:820  _amount */\n      dup5\n        /* \"contracts/Allowance.sol\":764:821  AllowanceChanged(_who,msg.sender,allowance[_who],_amount) */\n      mload(0x40)\n      tag_42\n      swap3\n      swap2\n      swap1\n      tag_43\n      jump\t// in\n    tag_42:\n      mload(0x40)\n      dup1\n      swap2\n      sub\n      swap1\n      log3\n        /* \"contracts/Allowance.sol\":850:857  _amount */\n      dup1\n        /* \"contracts/Allowance.sol\":832:841  allowance */\n      0x01\n        /* \"contracts/Allowance.sol\":832:847  allowance[_who] */\n      0x00\n        /* \"contracts/Allowance.sol\":842:846  _who */\n      dup5\n        /* \"contracts/Allowance.sol\":832:847  allowance[_who] */\n      0xffffffffffffffffffffffffffffffffffffffff\n      and\n      0xffffffffffffffffffffffffffffffffffffffff\n      and\n      dup2\n      mstore\n      0x20\n      add\n      swap1\n      dup2\n      mstore\n      0x20\n      add\n      0x00\n      keccak256\n        /* \"contracts/Allowance.sol\":832:857  allowance[_who] = _amount */\n      dup2\n      swap1\n      sstore\n      pop\n        /* \"contracts/Allowance.sol\":681:865  function setAllowance(address _who, uint _amount) public onlyOwner {... */\n      pop\n      pop\n      jump\t// out\n        /* \"contracts/Allowance.sol\":515:557  mapping (address => uint) public allowance */\n    tag_22:\n      mstore(0x20, 0x01)\n      dup1\n      0x00\n      mstore\n      keccak256(0x00, 0x40)\n      0x00\n      swap2\n      pop\n      swap1\n      pop\n      sload\n      dup2\n      jump\t// out\n        /* \"contracts/Allowance.sol\":425:445  address public owner */\n    tag_26:\n      0x00\n      dup1\n      sload\n      swap1\n      0x0100\n      exp\n      swap1\n      div\n      0xffffffffffffffffffffffffffffffffffffffff\n      and\n      dup2\n      jump\t// out\n        /* \"contracts/WalletProject.sol\":707:802  function recieveMoney() public payable {... */\n    tag_30:\n        /* \"contracts/WalletProject.sol\":772:782  msg.sender */\n      caller\n        /* \"contracts/WalletProject.sol\":762:793  MoneySent(msg.sender,msg.value) */\n      0xffffffffffffffffffffffffffffffffffffffff\n      and\n      0x7f51d406915971d4ac1c91af96be5187ea6ab64753785aad519a533def80a41e\n        /* \"contracts/WalletProject.sol\":783:792  msg.value */\n      callvalue\n        /* \"contracts/WalletProject.sol\":762:793  MoneySent(msg.sender,msg.value) */\n      mload(0x40)\n      tag_45\n      swap2\n      swap1\n      tag_12\n      jump\t// in\n    tag_45:\n      mload(0x40)\n      dup1\n      swap2\n      sub\n      swap1\n      log2\n        /* \"contracts/WalletProject.sol\":707:802  function recieveMoney() public payable {... */\n      jump\t// out\n        /* \"contracts/WalletProject.sol\":335:698  function withdrawMoney(address payable _to, uint _amount) public ownerOrAllowed(_amount) {... */\n    tag_35:\n        /* \"contracts/WalletProject.sol\":415:422  _amount */\n      dup1\n        /* \"contracts/Allowance.sol\":938:948  msg.sender */\n      caller\n        /* \"contracts/Allowance.sol\":929:948  owner == msg.sender */\n      0xffffffffffffffffffffffffffffffffffffffff\n      and\n        /* \"contracts/Allowance.sol\":929:934  owner */\n      0x00\n      dup1\n      sload\n      swap1\n      0x0100\n      exp\n      swap1\n      div\n      0xffffffffffffffffffffffffffffffffffffffff\n      and\n        /* \"contracts/Allowance.sol\":929:948  owner == msg.sender */\n      0xffffffffffffffffffffffffffffffffffffffff\n      and\n      eq\n        /* \"contracts/Allowance.sol\":929:984  owner == msg.sender || allowance[msg.sender] >= _amount */\n      dup1\n      tag_47\n      jumpi\n      pop\n        /* \"contracts/Allowance.sol\":977:984  _amount */\n      dup1\n        /* \"contracts/Allowance.sol\":952:961  allowance */\n      0x01\n        /* \"contracts/Allowance.sol\":952:973  allowance[msg.sender] */\n      0x00\n        /* \"contracts/Allowance.sol\":962:972  msg.sender */\n      caller\n        /* \"contracts/Allowance.sol\":952:973  allowance[msg.sender] */\n      0xffffffffffffffffffffffffffffffffffffffff\n      and\n      0xffffffffffffffffffffffffffffffffffffffff\n      and\n      dup2\n      mstore\n      0x20\n      add\n      swap1\n      dup2\n      mstore\n      0x20\n      add\n      0x00\n      keccak256\n      sload\n        /* \"contracts/Allowance.sol\":952:984  allowance[msg.sender] >= _amount */\n      lt\n      iszero\n        /* \"contracts/Allowance.sol\":929:984  owner == msg.sender || allowance[msg.sender] >= _amount */\n    tag_47:\n        /* \"contracts/Allowance.sol\":921:1008  require(owner == msg.sender || allowance[msg.sender] >= _amount, \"You are not allowed\") */\n      tag_48\n      jumpi\n      mload(0x40)\n      0x08c379a000000000000000000000000000000000000000000000000000000000\n      dup2\n      mstore\n      0x04\n      add\n      tag_49\n      swap1\n      tag_50\n      jump\t// in\n    tag_49:\n      mload(0x40)\n      dup1\n      swap2\n      sub\n      swap1\n      revert\n    tag_48:\n        /* \"contracts/WalletProject.sol\":454:475  address(this).balance */\n      selfbalance\n        /* \"contracts/WalletProject.sol\":443:450  _amount */\n      dup3\n        /* \"contracts/WalletProject.sol\":443:475  _amount <= address(this).balance */\n      gt\n      iszero\n        /* \"contracts/WalletProject.sol\":435:522  require(_amount <= address(this).balance, \"Not sufficient funds in the smart contract\") */\n      tag_52\n      jumpi\n      mload(0x40)\n      0x08c379a000000000000000000000000000000000000000000000000000000000\n      dup2\n      mstore\n      0x04\n      add\n      tag_53\n      swap1\n      tag_54\n      jump\t// in\n    tag_53:\n      mload(0x40)\n      dup1\n      swap2\n      sub\n      swap1\n      revert\n    tag_52:\n        /* \"contracts/WalletProject.sol\":545:555  msg.sender */\n      caller\n        /* \"contracts/WalletProject.sol\":536:555  owner != msg.sender */\n      0xffffffffffffffffffffffffffffffffffffffff\n      and\n        /* \"contracts/WalletProject.sol\":536:541  owner */\n      0x00\n      dup1\n      sload\n      swap1\n      0x0100\n      exp\n      swap1\n      div\n      0xffffffffffffffffffffffffffffffffffffffff\n      and\n        /* \"contracts/WalletProject.sol\":536:555  owner != msg.sender */\n      0xffffffffffffffffffffffffffffffffffffffff\n      and\n      eq\n        /* \"contracts/WalletProject.sol\":533:619  if(owner != msg.sender) {... */\n      tag_55\n      jumpi\n        /* \"contracts/WalletProject.sol\":572:607  reduceAllowance(msg.sender,_amount) */\n      tag_56\n        /* \"contracts/WalletProject.sol\":588:598  msg.sender */\n      caller\n        /* \"contracts/WalletProject.sol\":599:606  _amount */\n      dup4\n        /* \"contracts/WalletProject.sol\":572:587  reduceAllowance */\n      tag_57\n        /* \"contracts/WalletProject.sol\":572:607  reduceAllowance(msg.sender,_amount) */\n      jump\t// in\n    tag_56:\n        /* \"contracts/WalletProject.sol\":533:619  if(owner != msg.sender) {... */\n    tag_55:\n        /* \"contracts/WalletProject.sol\":644:647  _to */\n      dup3\n        /* \"contracts/WalletProject.sol\":634:656  MoneySent(_to,_amount) */\n      0xffffffffffffffffffffffffffffffffffffffff\n      and\n      0x7f51d406915971d4ac1c91af96be5187ea6ab64753785aad519a533def80a41e\n        /* \"contracts/WalletProject.sol\":648:655  _amount */\n      dup4\n        /* \"contracts/WalletProject.sol\":634:656  MoneySent(_to,_amount) */\n      mload(0x40)\n      tag_58\n      swap2\n      swap1\n      tag_12\n      jump\t// in\n    tag_58:\n      mload(0x40)\n      dup1\n      swap2\n      sub\n      swap1\n      log2\n        /* \"contracts/WalletProject.sol\":668:671  _to */\n      dup3\n        /* \"contracts/WalletProject.sol\":668:680  _to.transfer */\n      0xffffffffffffffffffffffffffffffffffffffff\n      and\n        /* \"contracts/WalletProject.sol\":668:689  _to.transfer(_amount) */\n      0x08fc\n        /* \"contracts/WalletProject.sol\":681:688  _amount */\n      dup4\n        /* \"contracts/WalletProject.sol\":668:689  _to.transfer(_amount) */\n      swap1\n      dup2\n      iszero\n      mul\n      swap1\n      mload(0x40)\n      0x00\n      mload(0x40)\n      dup1\n      dup4\n      sub\n      dup2\n      dup6\n      dup9\n      dup9\n      call\n      swap4\n      pop\n      pop\n      pop\n      pop\n      iszero\n      dup1\n      iszero\n      tag_60\n      jumpi\n      returndatasize\n      0x00\n      dup1\n      returndatacopy\n      revert(0x00, returndatasize)\n    tag_60:\n      pop\n        /* \"contracts/WalletProject.sol\":335:698  function withdrawMoney(address payable _to, uint _amount) public ownerOrAllowed(_amount) {... */\n      pop\n      pop\n      pop\n      jump\t// out\n        /* \"contracts/Allowance.sol\":1035:1256  function reduceAllowance(address _who,uint _amount) internal {... */\n    tag_57:\n        /* \"contracts/Allowance.sol\":1134:1144  msg.sender */\n      caller\n        /* \"contracts/Allowance.sol\":1112:1190  AllowanceChanged(_who,msg.sender,allowance[_who],allowance[_who].sub(_amount)) */\n      0xffffffffffffffffffffffffffffffffffffffff\n      and\n        /* \"contracts/Allowance.sol\":1129:1133  _who */\n      dup3\n        /* \"contracts/Allowance.sol\":1112:1190  AllowanceChanged(_who,msg.sender,allowance[_who],allowance[_who].sub(_amount)) */\n      0xffffffffffffffffffffffffffffffffffffffff\n      and\n      0x3691d1a86d99355e52b689ca70a7bdf6d80763237a6aa06e5fa43964eac7244b\n        /* \"contracts/Allowance.sol\":1145:1154  allowance */\n      0x01\n        /* \"contracts/Allowance.sol\":1145:1160  allowance[_who] */\n      0x00\n        /* \"contracts/Allowance.sol\":1155:1159  _who */\n      dup7\n        /* \"contracts/Allowance.sol\":1145:1160  allowance[_who] */\n      0xffffffffffffffffffffffffffffffffffffffff\n      and\n      0xffffffffffffffffffffffffffffffffffffffff\n      and\n      dup2\n      mstore\n      0x20\n      add\n      swap1\n      dup2\n      mstore\n      0x20\n      add\n      0x00\n      keccak256\n      sload\n        /* \"contracts/Allowance.sol\":1161:1189  allowance[_who].sub(_amount) */\n      tag_62\n        /* \"contracts/Allowance.sol\":1181:1188  _amount */\n      dup6\n        /* \"contracts/Allowance.sol\":1161:1170  allowance */\n      0x01\n        /* \"contracts/Allowance.sol\":1161:1176  allowance[_who] */\n      0x00\n        /* \"contracts/Allowance.sol\":1171:1175  _who */\n      dup10\n        /* \"contracts/Allowance.sol\":1161:1176  allowance[_who] */\n      0xffffffffffffffffffffffffffffffffffffffff\n      and\n      0xffffffffffffffffffffffffffffffffffffffff\n      and\n      dup2\n      mstore\n      0x20\n      add\n      swap1\n      dup2\n      mstore\n      0x20\n      add\n      0x00\n      keccak256\n      sload\n        /* \"contracts/Allowance.sol\":1161:1180  allowance[_who].sub */\n      tag_63\n      swap1\n        /* \"contracts/Allowance.sol\":1161:1189  allowance[_who].sub(_amount) */\n      swap2\n      swap1\n      0xffffffff\n      and\n      jump\t// in\n    tag_62:\n        /* \"contracts/Allowance.sol\":1112:1190  AllowanceChanged(_who,msg.sender,allowance[_who],allowance[_who].sub(_amount)) */\n      mload(0x40)\n      tag_64\n      swap3\n      swap2\n      swap1\n      tag_43\n      jump\t// in\n    tag_64:\n      mload(0x40)\n      dup1\n      swap2\n      sub\n      swap1\n      log3\n        /* \"contracts/Allowance.sol\":1220:1248  allowance[_who].sub(_amount) */\n      tag_65\n        /* \"contracts/Allowance.sol\":1240:1247  _amount */\n      dup2\n        /* \"contracts/Allowance.sol\":1220:1229  allowance */\n      0x01\n        /* \"contracts/Allowance.sol\":1220:1235  allowance[_who] */\n      0x00\n        /* \"contracts/Allowance.sol\":1230:1234  _who */\n      dup6\n        /* \"contracts/Allowance.sol\":1220:1235  allowance[_who] */\n      0xffffffffffffffffffffffffffffffffffffffff\n      and\n      0xffffffffffffffffffffffffffffffffffffffff\n      and\n      dup2\n      mstore\n      0x20\n      add\n      swap1\n      dup2\n      mstore\n      0x20\n      add\n      0x00\n      keccak256\n      sload\n        /* \"contracts/Allowance.sol\":1220:1239  allowance[_who].sub */\n      tag_63\n      swap1\n        /* \"contracts/Allowance.sol\":1220:1248  allowance[_who].sub(_amount) */\n      swap2\n      swap1\n      0xffffffff\n      and\n      jump\t// in\n    tag_65:\n        /* \"contracts/Allowance.sol\":1201:1210  allowance */\n      0x01\n        /* \"contracts/Allowance.sol\":1201:1216  allowance[_who] */\n      0x00\n        /* \"contracts/Allowance.sol\":1211:1215  _who */\n      dup5\n        /* \"contracts/Allowance.sol\":1201:1216  allowance[_who] */\n      0xffffffffffffffffffffffffffffffffffffffff\n      and\n      0xffffffffffffffffffffffffffffffffffffffff\n      and\n      dup2\n      mstore\n      0x20\n      add\n      swap1\n      dup2\n      mstore\n      0x20\n      add\n      0x00\n      keccak256\n        /* \"contracts/Allowance.sol\":1201:1248  allowance[_who]  = allowance[_who].sub(_amount) */\n      dup2\n      swap1\n      sstore\n      pop\n        /* \"contracts/Allowance.sol\":1035:1256  function reduceAllowance(address _who,uint _amount) internal {... */\n      pop\n      pop\n      jump\t// out\n        /* \"https://github.com/OpenZeppelin/openzeppelin-contracts/blob/master/contracts/utils/math/SafeMath.sol\":3108:3204  function sub(uint256 a, uint256 b) internal pure returns (uint256) {... */\n    tag_63:\n        /* \"https://github.com/OpenZeppelin/openzeppelin-contracts/blob/master/contracts/utils/math/SafeMath.sol\":3166:3173  uint256 */\n      0x00\n        /* \"https://github.com/OpenZeppelin/openzeppelin-contracts/blob/master/contracts/utils/math/SafeMath.sol\":3196:3197  b */\n      dup2\n        /* \"https://github.com/OpenZeppelin/openzeppelin-contracts/blob/master/contracts/utils/math/SafeMath.sol\":3192:3193  a */\n      dup4\n        /* \"https://github.com/OpenZeppelin/openzeppelin-contracts/blob/master/contracts/utils/math/SafeMath.sol\":3192:3197  a - b */\n      tag_67\n      swap2\n      swap1\n      tag_68\n      jump\t// in\n    tag_67:\n        /* \"https://github.com/OpenZeppelin/openzeppelin-contracts/blob/master/contracts/utils/math/SafeMath.sol\":3185:3197  return a - b */\n      swap1\n      pop\n        /* \"https://github.com/OpenZeppelin/openzeppelin-contracts/blob/master/contracts/utils/math/SafeMath.sol\":3108:3204  function sub(uint256 a, uint256 b) internal pure returns (uint256) {... */\n      swap3\n      swap2\n      pop\n      pop\n      jump\t// out\n        /* \"#utility.yul\":7:84   */\n    tag_69:\n        /* \"#utility.yul\":44:51   */\n      0x00\n        /* \"#utility.yul\":73:78   */\n      dup2\n        /* \"#utility.yul\":62:78   */\n      swap1\n      pop\n        /* \"#utility.yul\":7:84   */\n      swap2\n      swap1\n      pop\n      jump\t// out\n        /* \"#utility.yul\":90:208   */\n    tag_70:\n        /* \"#utility.yul\":177:201   */\n      tag_95\n        /* \"#utility.yul\":195:200   */\n      dup2\n        /* \"#utility.yul\":177:201   */\n      tag_69\n      jump\t// in\n    tag_95:\n        /* \"#utility.yul\":172:175   */\n      dup3\n        /* \"#utility.yul\":165:202   */\n      mstore\n        /* \"#utility.yul\":90:208   */\n      pop\n      pop\n      jump\t// out\n        /* \"#utility.yul\":214:436   */\n    tag_12:\n        /* \"#utility.yul\":307:311   */\n      0x00\n        /* \"#utility.yul\":345:347   */\n      0x20\n        /* \"#utility.yul\":334:343   */\n      dup3\n        /* \"#utility.yul\":330:348   */\n      add\n        /* \"#utility.yul\":322:348   */\n      swap1\n      pop\n        /* \"#utility.yul\":358:429   */\n      tag_97\n        /* \"#utility.yul\":426:427   */\n      0x00\n        /* \"#utility.yul\":415:424   */\n      dup4\n        /* \"#utility.yul\":411:428   */\n      add\n        /* \"#utility.yul\":402:408   */\n      dup5\n        /* \"#utility.yul\":358:429   */\n      tag_70\n      jump\t// in\n    tag_97:\n        /* \"#utility.yul\":214:436   */\n      swap3\n      swap2\n      pop\n      pop\n      jump\t// out\n        /* \"#utility.yul\":523:640   */\n    tag_72:\n        /* \"#utility.yul\":632:633   */\n      0x00\n        /* \"#utility.yul\":629:630   */\n      dup1\n        /* \"#utility.yul\":622:634   */\n      revert\n        /* \"#utility.yul\":769:895   */\n    tag_74:\n        /* \"#utility.yul\":806:813   */\n      0x00\n        /* \"#utility.yul\":846:888   */\n      0xffffffffffffffffffffffffffffffffffffffff\n        /* \"#utility.yul\":839:844   */\n      dup3\n        /* \"#utility.yul\":835:889   */\n      and\n        /* \"#utility.yul\":824:889   */\n      swap1\n      pop\n        /* \"#utility.yul\":769:895   */\n      swap2\n      swap1\n      pop\n      jump\t// out\n        /* \"#utility.yul\":901:997   */\n    tag_75:\n        /* \"#utility.yul\":938:945   */\n      0x00\n        /* \"#utility.yul\":967:991   */\n      tag_103\n        /* \"#utility.yul\":985:990   */\n      dup3\n        /* \"#utility.yul\":967:991   */\n      tag_74\n      jump\t// in\n    tag_103:\n        /* \"#utility.yul\":956:991   */\n      swap1\n      pop\n        /* \"#utility.yul\":901:997   */\n      swap2\n      swap1\n      pop\n      jump\t// out\n        /* \"#utility.yul\":1003:1125   */\n    tag_76:\n        /* \"#utility.yul\":1076:1100   */\n      tag_105\n        /* \"#utility.yul\":1094:1099   */\n      dup2\n        /* \"#utility.yul\":1076:1100   */\n      tag_75\n      jump\t// in\n    tag_105:\n        /* \"#utility.yul\":1069:1074   */\n      dup2\n        /* \"#utility.yul\":1066:1101   */\n      eq\n        /* \"#utility.yul\":1056:1119   */\n      tag_106\n      jumpi\n        /* \"#utility.yul\":1115:1116   */\n      0x00\n        /* \"#utility.yul\":1112:1113   */\n      dup1\n        /* \"#utility.yul\":1105:1117   */\n      revert\n        /* \"#utility.yul\":1056:1119   */\n    tag_106:\n        /* \"#utility.yul\":1003:1125   */\n      pop\n      jump\t// out\n        /* \"#utility.yul\":1131:1270   */\n    tag_77:\n        /* \"#utility.yul\":1177:1182   */\n      0x00\n        /* \"#utility.yul\":1215:1221   */\n      dup2\n        /* \"#utility.yul\":1202:1222   */\n      calldataload\n        /* \"#utility.yul\":1193:1222   */\n      swap1\n      pop\n        /* \"#utility.yul\":1231:1264   */\n      tag_108\n        /* \"#utility.yul\":1258:1263   */\n      dup2\n        /* \"#utility.yul\":1231:1264   */\n      tag_76\n      jump\t// in\n    tag_108:\n        /* \"#utility.yul\":1131:1270   */\n      swap3\n      swap2\n      pop\n      pop\n      jump\t// out\n        /* \"#utility.yul\":1276:1398   */\n    tag_78:\n        /* \"#utility.yul\":1349:1373   */\n      tag_110\n        /* \"#utility.yul\":1367:1372   */\n      dup2\n        /* \"#utility.yul\":1349:1373   */\n      tag_69\n      jump\t// in\n    tag_110:\n        /* \"#utility.yul\":1342:1347   */\n      dup2\n        /* \"#utility.yul\":1339:1374   */\n      eq\n        /* \"#utility.yul\":1329:1392   */\n      tag_111\n      jumpi\n        /* \"#utility.yul\":1388:1389   */\n      0x00\n        /* \"#utility.yul\":1385:1386   */\n      dup1\n        /* \"#utility.yul\":1378:1390   */\n      revert\n        /* \"#utility.yul\":1329:1392   */\n    tag_111:\n        /* \"#utility.yul\":1276:1398   */\n      pop\n      jump\t// out\n        /* \"#utility.yul\":1404:1543   */\n    tag_79:\n        /* \"#utility.yul\":1450:1455   */\n      0x00\n        /* \"#utility.yul\":1488:1494   */\n      dup2\n        /* \"#utility.yul\":1475:1495   */\n      calldataload\n        /* \"#utility.yul\":1466:1495   */\n      swap1\n      pop\n        /* \"#utility.yul\":1504:1537   */\n      tag_113\n        /* \"#utility.yul\":1531:1536   */\n      dup2\n        /* \"#utility.yul\":1504:1537   */\n      tag_78\n      jump\t// in\n    tag_113:\n        /* \"#utility.yul\":1404:1543   */\n      swap3\n      swap2\n      pop\n      pop\n      jump\t// out\n        /* \"#utility.yul\":1549:2023   */\n    tag_16:\n        /* \"#utility.yul\":1617:1623   */\n      0x00\n        /* \"#utility.yul\":1625:1631   */\n      dup1\n        /* \"#utility.yul\":1674:1676   */\n      0x40\n        /* \"#utility.yul\":1662:1671   */\n      dup4\n        /* \"#utility.yul\":1653:1660   */\n      dup6\n        /* \"#utility.yul\":1649:1672   */\n      sub\n        /* \"#utility.yul\":1645:1677   */\n      slt\n        /* \"#utility.yul\":1642:1761   */\n      iszero\n      tag_115\n      jumpi\n        /* \"#utility.yul\":1680:1759   */\n      tag_116\n      tag_72\n      jump\t// in\n    tag_116:\n        /* \"#utility.yul\":1642:1761   */\n    tag_115:\n        /* \"#utility.yul\":1800:1801   */\n      0x00\n        /* \"#utility.yul\":1825:1878   */\n      tag_117\n        /* \"#utility.yul\":1870:1877   */\n      dup6\n        /* \"#utility.yul\":1861:1867   */\n      dup3\n        /* \"#utility.yul\":1850:1859   */\n      dup7\n        /* \"#utility.yul\":1846:1868   */\n      add\n        /* \"#utility.yul\":1825:1878   */\n      tag_77\n      jump\t// in\n    tag_117:\n        /* \"#utility.yul\":1815:1878   */\n      swap3\n      pop\n        /* \"#utility.yul\":1771:1888   */\n      pop\n        /* \"#utility.yul\":1927:1929   */\n      0x20\n        /* \"#utility.yul\":1953:2006   */\n      tag_118\n        /* \"#utility.yul\":1998:2005   */\n      dup6\n        /* \"#utility.yul\":1989:1995   */\n      dup3\n        /* \"#utility.yul\":1978:1987   */\n      dup7\n        /* \"#utility.yul\":1974:1996   */\n      add\n        /* \"#utility.yul\":1953:2006   */\n      tag_79\n      jump\t// in\n    tag_118:\n        /* \"#utility.yul\":1943:2006   */\n      swap2\n      pop\n        /* \"#utility.yul\":1898:2016   */\n      pop\n        /* \"#utility.yul\":1549:2023   */\n      swap3\n      pop\n      swap3\n      swap1\n      pop\n      jump\t// out\n        /* \"#utility.yul\":2029:2358   */\n    tag_21:\n        /* \"#utility.yul\":2088:2094   */\n      0x00\n        /* \"#utility.yul\":2137:2139   */\n      0x20\n        /* \"#utility.yul\":2125:2134   */\n      dup3\n        /* \"#utility.yul\":2116:2123   */\n      dup5\n        /* \"#utility.yul\":2112:2135   */\n      sub\n        /* \"#utility.yul\":2108:2140   */\n      slt\n        /* \"#utility.yul\":2105:2224   */\n      iszero\n      tag_120\n      jumpi\n        /* \"#utility.yul\":2143:2222   */\n      tag_121\n      tag_72\n      jump\t// in\n    tag_121:\n        /* \"#utility.yul\":2105:2224   */\n    tag_120:\n        /* \"#utility.yul\":2263:2264   */\n      0x00\n        /* \"#utility.yul\":2288:2341   */\n      tag_122\n        /* \"#utility.yul\":2333:2340   */\n      dup5\n        /* \"#utility.yul\":2324:2330   */\n      dup3\n        /* \"#utility.yul\":2313:2322   */\n      dup6\n        /* \"#utility.yul\":2309:2331   */\n      add\n        /* \"#utility.yul\":2288:2341   */\n      tag_77\n      jump\t// in\n    tag_122:\n        /* \"#utility.yul\":2278:2341   */\n      swap2\n      pop\n        /* \"#utility.yul\":2234:2351   */\n      pop\n        /* \"#utility.yul\":2029:2358   */\n      swap3\n      swap2\n      pop\n      pop\n      jump\t// out\n        /* \"#utility.yul\":2364:2482   */\n    tag_80:\n        /* \"#utility.yul\":2451:2475   */\n      tag_124\n        /* \"#utility.yul\":2469:2474   */\n      dup2\n        /* \"#utility.yul\":2451:2475   */\n      tag_75\n      jump\t// in\n    tag_124:\n        /* \"#utility.yul\":2446:2449   */\n      dup3\n        /* \"#utility.yul\":2439:2476   */\n      mstore\n        /* \"#utility.yul\":2364:2482   */\n      pop\n      pop\n      jump\t// out\n        /* \"#utility.yul\":2488:2710   */\n    tag_28:\n        /* \"#utility.yul\":2581:2585   */\n      0x00\n        /* \"#utility.yul\":2619:2621   */\n      0x20\n        /* \"#utility.yul\":2608:2617   */\n      dup3\n        /* \"#utility.yul\":2604:2622   */\n      add\n        /* \"#utility.yul\":2596:2622   */\n      swap1\n      pop\n        /* \"#utility.yul\":2632:2703   */\n      tag_126\n        /* \"#utility.yul\":2700:2701   */\n      0x00\n        /* \"#utility.yul\":2689:2698   */\n      dup4\n        /* \"#utility.yul\":2685:2702   */\n      add\n        /* \"#utility.yul\":2676:2682   */\n      dup5\n        /* \"#utility.yul\":2632:2703   */\n      tag_80\n      jump\t// in\n    tag_126:\n        /* \"#utility.yul\":2488:2710   */\n      swap3\n      swap2\n      pop\n      pop\n      jump\t// out\n        /* \"#utility.yul\":2716:2820   */\n    tag_81:\n        /* \"#utility.yul\":2761:2768   */\n      0x00\n        /* \"#utility.yul\":2790:2814   */\n      tag_128\n        /* \"#utility.yul\":2808:2813   */\n      dup3\n        /* \"#utility.yul\":2790:2814   */\n      tag_74\n      jump\t// in\n    tag_128:\n        /* \"#utility.yul\":2779:2814   */\n      swap1\n      pop\n        /* \"#utility.yul\":2716:2820   */\n      swap2\n      swap1\n      pop\n      jump\t// out\n        /* \"#utility.yul\":2826:2964   */\n    tag_82:\n        /* \"#utility.yul\":2907:2939   */\n      tag_130\n        /* \"#utility.yul\":2933:2938   */\n      dup2\n        /* \"#utility.yul\":2907:2939   */\n      tag_81\n      jump\t// in\n    tag_130:\n        /* \"#utility.yul\":2900:2905   */\n      dup2\n        /* \"#utility.yul\":2897:2940   */\n      eq\n        /* \"#utility.yul\":2887:2958   */\n      tag_131\n      jumpi\n        /* \"#utility.yul\":2954:2955   */\n      0x00\n        /* \"#utility.yul\":2951:2952   */\n      dup1\n        /* \"#utility.yul\":2944:2956   */\n      revert\n        /* \"#utility.yul\":2887:2958   */\n    tag_131:\n        /* \"#utility.yul\":2826:2964   */\n      pop\n      jump\t// out\n        /* \"#utility.yul\":2970:3125   */\n    tag_83:\n        /* \"#utility.yul\":3024:3029   */\n      0x00\n        /* \"#utility.yul\":3062:3068   */\n      dup2\n        /* \"#utility.yul\":3049:3069   */\n      calldataload\n        /* \"#utility.yul\":3040:3069   */\n      swap1\n      pop\n        /* \"#utility.yul\":3078:3119   */\n      tag_133\n        /* \"#utility.yul\":3113:3118   */\n      dup2\n        /* \"#utility.yul\":3078:3119   */\n      tag_82\n      jump\t// in\n    tag_133:\n        /* \"#utility.yul\":2970:3125   */\n      swap3\n      swap2\n      pop\n      pop\n      jump\t// out\n        /* \"#utility.yul\":3131:3621   */\n    tag_34:\n        /* \"#utility.yul\":3207:3213   */\n      0x00\n        /* \"#utility.yul\":3215:3221   */\n      dup1\n        /* \"#utility.yul\":3264:3266   */\n      0x40\n        /* \"#utility.yul\":3252:3261   */\n      dup4\n        /* \"#utility.yul\":3243:3250   */\n      dup6\n        /* \"#utility.yul\":3239:3262   */\n      sub\n        /* \"#utility.yul\":3235:3267   */\n      slt\n        /* \"#utility.yul\":3232:3351   */\n      iszero\n      tag_135\n      jumpi\n        /* \"#utility.yul\":3270:3349   */\n      tag_136\n      tag_72\n      jump\t// in\n    tag_136:\n        /* \"#utility.yul\":3232:3351   */\n    tag_135:\n        /* \"#utility.yul\":3390:3391   */\n      0x00\n        /* \"#utility.yul\":3415:3476   */\n      tag_137\n        /* \"#utility.yul\":3468:3475   */\n      dup6\n        /* \"#utility.yul\":3459:3465   */\n      dup3\n        /* \"#utility.yul\":3448:3457   */\n      dup7\n        /* \"#utility.yul\":3444:3466   */\n      add\n        /* \"#utility.yul\":3415:3476   */\n      tag_83\n      jump\t// in\n    tag_137:\n        /* \"#utility.yul\":3405:3476   */\n      swap3\n      pop\n        /* \"#utility.yul\":3361:3486   */\n      pop\n        /* \"#utility.yul\":3525:3527   */\n      0x20\n        /* \"#utility.yul\":3551:3604   */\n      tag_138\n        /* \"#utility.yul\":3596:3603   */\n      dup6\n        /* \"#utility.yul\":3587:3593   */\n      dup3\n        /* \"#utility.yul\":3576:3585   */\n      dup7\n        /* \"#utility.yul\":3572:3594   */\n      add\n        /* \"#utility.yul\":3551:3604   */\n      tag_79\n      jump\t// in\n    tag_138:\n        /* \"#utility.yul\":3541:3604   */\n      swap2\n      pop\n        /* \"#utility.yul\":3496:3614   */\n      pop\n        /* \"#utility.yul\":3131:3621   */\n      swap3\n      pop\n      swap3\n      swap1\n      pop\n      jump\t// out\n        /* \"#utility.yul\":3627:3796   */\n    tag_84:\n        /* \"#utility.yul\":3711:3722   */\n      0x00\n        /* \"#utility.yul\":3745:3751   */\n      dup3\n        /* \"#utility.yul\":3740:3743   */\n      dup3\n        /* \"#utility.yul\":3733:3752   */\n      mstore\n        /* \"#utility.yul\":3785:3789   */\n      0x20\n        /* \"#utility.yul\":3780:3783   */\n      dup3\n        /* \"#utility.yul\":3776:3790   */\n      add\n        /* \"#utility.yul\":3761:3790   */\n      swap1\n      pop\n        /* \"#utility.yul\":3627:3796   */\n      swap3\n      swap2\n      pop\n      pop\n      jump\t// out\n        /* \"#utility.yul\":3802:3973   */\n    tag_85:\n        /* \"#utility.yul\":3942:3965   */\n      0x596f7520617265206e6f7420746865206f776e65720000000000000000000000\n        /* \"#utility.yul\":3938:3939   */\n      0x00\n        /* \"#utility.yul\":3930:3936   */\n      dup3\n        /* \"#utility.yul\":3926:3940   */\n      add\n        /* \"#utility.yul\":3919:3966   */\n      mstore\n        /* \"#utility.yul\":3802:3973   */\n      pop\n      jump\t// out\n        /* \"#utility.yul\":3979:4345   */\n    tag_86:\n        /* \"#utility.yul\":4121:4124   */\n      0x00\n        /* \"#utility.yul\":4142:4209   */\n      tag_142\n        /* \"#utility.yul\":4206:4208   */\n      0x15\n        /* \"#utility.yul\":4201:4204   */\n      dup4\n        /* \"#utility.yul\":4142:4209   */\n      tag_84\n      jump\t// in\n    tag_142:\n        /* \"#utility.yul\":4135:4209   */\n      swap2\n      pop\n        /* \"#utility.yul\":4218:4311   */\n      tag_143\n        /* \"#utility.yul\":4307:4310   */\n      dup3\n        /* \"#utility.yul\":4218:4311   */\n      tag_85\n      jump\t// in\n    tag_143:\n        /* \"#utility.yul\":4336:4338   */\n      0x20\n        /* \"#utility.yul\":4331:4334   */\n      dup3\n        /* \"#utility.yul\":4327:4339   */\n      add\n        /* \"#utility.yul\":4320:4339   */\n      swap1\n      pop\n        /* \"#utility.yul\":3979:4345   */\n      swap2\n      swap1\n      pop\n      jump\t// out\n        /* \"#utility.yul\":4351:4770   */\n    tag_40:\n        /* \"#utility.yul\":4517:4521   */\n      0x00\n        /* \"#utility.yul\":4555:4557   */\n      0x20\n        /* \"#utility.yul\":4544:4553   */\n      dup3\n        /* \"#utility.yul\":4540:4558   */\n      add\n        /* \"#utility.yul\":4532:4558   */\n      swap1\n      pop\n        /* \"#utility.yul\":4604:4613   */\n      dup2\n        /* \"#utility.yul\":4598:4602   */\n      dup2\n        /* \"#utility.yul\":4594:4614   */\n      sub\n        /* \"#utility.yul\":4590:4591   */\n      0x00\n        /* \"#utility.yul\":4579:4588   */\n      dup4\n        /* \"#utility.yul\":4575:4592   */\n      add\n        /* \"#utility.yul\":4568:4615   */\n      mstore\n        /* \"#utility.yul\":4632:4763   */\n      tag_145\n        /* \"#utility.yul\":4758:4762   */\n      dup2\n        /* \"#utility.yul\":4632:4763   */\n      tag_86\n      jump\t// in\n    tag_145:\n        /* \"#utility.yul\":4624:4763   */\n      swap1\n      pop\n        /* \"#utility.yul\":4351:4770   */\n      swap2\n      swap1\n      pop\n      jump\t// out\n        /* \"#utility.yul\":4776:5108   */\n    tag_43:\n        /* \"#utility.yul\":4897:4901   */\n      0x00\n        /* \"#utility.yul\":4935:4937   */\n      0x40\n        /* \"#utility.yul\":4924:4933   */\n      dup3\n        /* \"#utility.yul\":4920:4938   */\n      add\n        /* \"#utility.yul\":4912:4938   */\n      swap1\n      pop\n        /* \"#utility.yul\":4948:5019   */\n      tag_147\n        /* \"#utility.yul\":5016:5017   */\n      0x00\n        /* \"#utility.yul\":5005:5014   */\n      dup4\n        /* \"#utility.yul\":5001:5018   */\n      add\n        /* \"#utility.yul\":4992:4998   */\n      dup6\n        /* \"#utility.yul\":4948:5019   */\n      tag_70\n      jump\t// in\n    tag_147:\n        /* \"#utility.yul\":5029:5101   */\n      tag_148\n        /* \"#utility.yul\":5097:5099   */\n      0x20\n        /* \"#utility.yul\":5086:5095   */\n      dup4\n        /* \"#utility.yul\":5082:5100   */\n      add\n        /* \"#utility.yul\":5073:5079   */\n      dup5\n        /* \"#utility.yul\":5029:5101   */\n      tag_70\n      jump\t// in\n    tag_148:\n        /* \"#utility.yul\":4776:5108   */\n      swap4\n      swap3\n      pop\n      pop\n      pop\n      jump\t// out\n        /* \"#utility.yul\":5114:5283   */\n    tag_87:\n        /* \"#utility.yul\":5254:5275   */\n      0x596f7520617265206e6f7420616c6c6f77656400000000000000000000000000\n        /* \"#utility.yul\":5250:5251   */\n      0x00\n        /* \"#utility.yul\":5242:5248   */\n      dup3\n        /* \"#utility.yul\":5238:5252   */\n      add\n        /* \"#utility.yul\":5231:5276   */\n      mstore\n        /* \"#utility.yul\":5114:5283   */\n      pop\n      jump\t// out\n        /* \"#utility.yul\":5289:5655   */\n    tag_88:\n        /* \"#utility.yul\":5431:5434   */\n      0x00\n        /* \"#utility.yul\":5452:5519   */\n      tag_151\n        /* \"#utility.yul\":5516:5518   */\n      0x13\n        /* \"#utility.yul\":5511:5514   */\n      dup4\n        /* \"#utility.yul\":5452:5519   */\n      tag_84\n      jump\t// in\n    tag_151:\n        /* \"#utility.yul\":5445:5519   */\n      swap2\n      pop\n        /* \"#utility.yul\":5528:5621   */\n      tag_152\n        /* \"#utility.yul\":5617:5620   */\n      dup3\n        /* \"#utility.yul\":5528:5621   */\n      tag_87\n      jump\t// in\n    tag_152:\n        /* \"#utility.yul\":5646:5648   */\n      0x20\n        /* \"#utility.yul\":5641:5644   */\n      dup3\n        /* \"#utility.yul\":5637:5649   */\n      add\n        /* \"#utility.yul\":5630:5649   */\n      swap1\n      pop\n        /* \"#utility.yul\":5289:5655   */\n      swap2\n      swap1\n      pop\n      jump\t// out\n        /* \"#utility.yul\":5661:6080   */\n    tag_50:\n        /* \"#utility.yul\":5827:5831   */\n      0x00\n        /* \"#utility.yul\":5865:5867   */\n      0x20\n        /* \"#utility.yul\":5854:5863   */\n      dup3\n        /* \"#utility.yul\":5850:5868   */\n      add\n        /* \"#utility.yul\":5842:5868   */\n      swap1\n      pop\n        /* \"#utility.yul\":5914:5923   */\n      dup2\n        /* \"#utility.yul\":5908:5912   */\n      dup2\n        /* \"#utility.yul\":5904:5924   */\n      sub\n        /* \"#utility.yul\":5900:5901   */\n      0x00\n        /* \"#utility.yul\":5889:5898   */\n      dup4\n        /* \"#utility.yul\":5885:5902   */\n      add\n        /* \"#utility.yul\":5878:5925   */\n      mstore\n        /* \"#utility.yul\":5942:6073   */\n      tag_154\n        /* \"#utility.yul\":6068:6072   */\n      dup2\n        /* \"#utility.yul\":5942:6073   */\n      tag_88\n      jump\t// in\n    tag_154:\n        /* \"#utility.yul\":5934:6073   */\n      swap1\n      pop\n        /* \"#utility.yul\":5661:6080   */\n      swap2\n      swap1\n      pop\n      jump\t// out\n        /* \"#utility.yul\":6086:6315   */\n    tag_89:\n        /* \"#utility.yul\":6226:6260   */\n      0x4e6f742073756666696369656e742066756e647320696e2074686520736d6172\n        /* \"#utility.yul\":6222:6223   */\n      0x00\n        /* \"#utility.yul\":6214:6220   */\n      dup3\n        /* \"#utility.yul\":6210:6224   */\n      add\n        /* \"#utility.yul\":6203:6261   */\n      mstore\n        /* \"#utility.yul\":6295:6307   */\n      0x7420636f6e747261637400000000000000000000000000000000000000000000\n        /* \"#utility.yul\":6290:6292   */\n      0x20\n        /* \"#utility.yul\":6282:6288   */\n      dup3\n        /* \"#utility.yul\":6278:6293   */\n      add\n        /* \"#utility.yul\":6271:6308   */\n      mstore\n        /* \"#utility.yul\":6086:6315   */\n      pop\n      jump\t// out\n        /* \"#utility.yul\":6321:6687   */\n    tag_90:\n        /* \"#utility.yul\":6463:6466   */\n      0x00\n        /* \"#utility.yul\":6484:6551   */\n      tag_157\n        /* \"#utility.yul\":6548:6550   */\n      0x2a\n        /* \"#utility.yul\":6543:6546   */\n      dup4\n        /* \"#utility.yul\":6484:6551   */\n      tag_84\n      jump\t// in\n    tag_157:\n        /* \"#utility.yul\":6477:6551   */\n      swap2\n      pop\n        /* \"#utility.yul\":6560:6653   */\n      tag_158\n        /* \"#utility.yul\":6649:6652   */\n      dup3\n        /* \"#utility.yul\":6560:6653   */\n      tag_89\n      jump\t// in\n    tag_158:\n        /* \"#utility.yul\":6678:6680   */\n      0x40\n        /* \"#utility.yul\":6673:6676   */\n      dup3\n        /* \"#utility.yul\":6669:6681   */\n      add\n        /* \"#utility.yul\":6662:6681   */\n      swap1\n      pop\n        /* \"#utility.yul\":6321:6687   */\n      swap2\n      swap1\n      pop\n      jump\t// out\n        /* \"#utility.yul\":6693:7112   */\n    tag_54:\n        /* \"#utility.yul\":6859:6863   */\n      0x00\n        /* \"#utility.yul\":6897:6899   */\n      0x20\n        /* \"#utility.yul\":6886:6895   */\n      dup3\n        /* \"#utility.yul\":6882:6900   */\n      add\n        /* \"#utility.yul\":6874:6900   */\n      swap1\n      pop\n        /* \"#utility.yul\":6946:6955   */\n      dup2\n        /* \"#utility.yul\":6940:6944   */\n      dup2\n        /* \"#utility.yul\":6936:6956   */\n      sub\n        /* \"#utility.yul\":6932:6933   */\n      0x00\n        /* \"#utility.yul\":6921:6930   */\n      dup4\n        /* \"#utility.yul\":6917:6934   */\n      add\n        /* \"#utility.yul\":6910:6957   */\n      mstore\n        /* \"#utility.yul\":6974:7105   */\n      tag_160\n        /* \"#utility.yul\":7100:7104   */\n      dup2\n        /* \"#utility.yul\":6974:7105   */\n      tag_90\n      jump\t// in\n    tag_160:\n        /* \"#utility.yul\":6966:7105   */\n      swap1\n      pop\n        /* \"#utility.yul\":6693:7112   */\n      swap2\n      swap1\n      pop\n      jump\t// out\n        /* \"#utility.yul\":7118:7298   */\n    tag_91:\n        /* \"#utility.yul\":7166:7243   */\n      0x4e487b7100000000000000000000000000000000000000000000000000000000\n        /* \"#utility.yul\":7163:7164   */\n      0x00\n        /* \"#utility.yul\":7156:7244   */\n      mstore\n        /* \"#utility.yul\":7263:7267   */\n      0x11\n        /* \"#utility.yul\":7260:7261   */\n      0x04\n        /* \"#utility.yul\":7253:7268   */\n      mstore\n        /* \"#utility.yul\":7287:7291   */\n      0x24\n        /* \"#utility.yul\":7284:7285   */\n      0x00\n        /* \"#utility.yul\":7277:7292   */\n      revert\n        /* \"#utility.yul\":7304:7495   */\n    tag_68:\n        /* \"#utility.yul\":7344:7348   */\n      0x00\n        /* \"#utility.yul\":7364:7384   */\n      tag_163\n        /* \"#utility.yul\":7382:7383   */\n      dup3\n        /* \"#utility.yul\":7364:7384   */\n      tag_69\n      jump\t// in\n    tag_163:\n        /* \"#utility.yul\":7359:7384   */\n      swap2\n      pop\n        /* \"#utility.yul\":7398:7418   */\n      tag_164\n        /* \"#utility.yul\":7416:7417   */\n      dup4\n        /* \"#utility.yul\":7398:7418   */\n      tag_69\n      jump\t// in\n    tag_164:\n        /* \"#utility.yul\":7393:7418   */\n      swap3\n      pop\n        /* \"#utility.yul\":7437:7438   */\n      dup3\n        /* \"#utility.yul\":7434:7435   */\n      dup3\n        /* \"#utility.yul\":7431:7439   */\n      lt\n        /* \"#utility.yul\":7428:7462   */\n      iszero\n      tag_165\n      jumpi\n        /* \"#utility.yul\":7442:7460   */\n      tag_166\n      tag_91\n      jump\t// in\n    tag_166:\n        /* \"#utility.yul\":7428:7462   */\n    tag_165:\n        /* \"#utility.yul\":7487:7488   */\n      dup3\n        /* \"#utility.yul\":7484:7485   */\n      dup3\n        /* \"#utility.yul\":7480:7489   */\n      sub\n        /* \"#utility.yul\":7472:7489   */\n      swap1\n      pop\n        /* \"#utility.yul\":7304:7495   */\n      swap3\n      swap2\n      pop\n      pop\n      jump\t// out\n\n    auxdata: 0xa264697066735822122038434ec9697ce4b2ec8d3da8d4233cf2f77a506226c48ac3b65e8e86b192dbb664736f6c634300080d0033\n}\n",
				"bytecode": {
					"linkReferences": {},
					"object": "608060405234801561001057600080fd5b50336000806101000a81548173ffffffffffffffffffffffffffffffffffffffff021916908373ffffffffffffffffffffffffffffffffffffffff160217905550610b28806100606000396000f3fe6080604052600436106100555760003560e01c806312065fe01461005a578063310ec4a7146100855780633e5beab9146100ae5780638da5cb5b146100eb578063cca955a014610116578063f274c89714610120575b600080fd5b34801561006657600080fd5b5061006f610149565b60405161007c919061072c565b60405180910390f35b34801561009157600080fd5b506100ac60048036038101906100a791906107d6565b610151565b005b3480156100ba57600080fd5b506100d560048036038101906100d09190610816565b6102cd565b6040516100e2919061072c565b60405180910390f35b3480156100f757600080fd5b506101006102e5565b60405161010d9190610852565b60405180910390f35b61011e610309565b005b34801561012c57600080fd5b50610147600480360381019061014291906108ab565b610359565b005b600047905090565b3373ffffffffffffffffffffffffffffffffffffffff1660008054906101000a900473ffffffffffffffffffffffffffffffffffffffff1673ffffffffffffffffffffffffffffffffffffffff16146101df576040517f08c379a00000000000000000000000000000000000000000000000000000000081526004016101d690610948565b60405180910390fd5b3373ffffffffffffffffffffffffffffffffffffffff168273ffffffffffffffffffffffffffffffffffffffff167f3691d1a86d99355e52b689ca70a7bdf6d80763237a6aa06e5fa43964eac7244b600160008673ffffffffffffffffffffffffffffffffffffffff1673ffffffffffffffffffffffffffffffffffffffff168152602001908152602001600020548460405161027d929190610968565b60405180910390a380600160008473ffffffffffffffffffffffffffffffffffffffff1673ffffffffffffffffffffffffffffffffffffffff168152602001908152602001600020819055505050565b60016020528060005260406000206000915090505481565b60008054906101000a900473ffffffffffffffffffffffffffffffffffffffff1681565b3373ffffffffffffffffffffffffffffffffffffffff167f7f51d406915971d4ac1c91af96be5187ea6ab64753785aad519a533def80a41e3460405161034f919061072c565b60405180910390a2565b803373ffffffffffffffffffffffffffffffffffffffff1660008054906101000a900473ffffffffffffffffffffffffffffffffffffffff1673ffffffffffffffffffffffffffffffffffffffff1614806103f3575080600160003373ffffffffffffffffffffffffffffffffffffffff1673ffffffffffffffffffffffffffffffffffffffff1681526020019081526020016000205410155b610432576040517f08c379a0000000000000000000000000000000000000000000000000000000008152600401610429906109dd565b60405180910390fd5b47821115610475576040517f08c379a000000000000000000000000000000000000000000000000000000000815260040161046c90610a6f565b60405180910390fd5b3373ffffffffffffffffffffffffffffffffffffffff1660008054906101000a900473ffffffffffffffffffffffffffffffffffffffff1673ffffffffffffffffffffffffffffffffffffffff16146104d3576104d2338361056d565b5b8273ffffffffffffffffffffffffffffffffffffffff167f7f51d406915971d4ac1c91af96be5187ea6ab64753785aad519a533def80a41e83604051610519919061072c565b60405180910390a28273ffffffffffffffffffffffffffffffffffffffff166108fc839081150290604051600060405180830381858888f19350505050158015610567573d6000803e3d6000fd5b50505050565b3373ffffffffffffffffffffffffffffffffffffffff168273ffffffffffffffffffffffffffffffffffffffff167f3691d1a86d99355e52b689ca70a7bdf6d80763237a6aa06e5fa43964eac7244b600160008673ffffffffffffffffffffffffffffffffffffffff1673ffffffffffffffffffffffffffffffffffffffff1681526020019081526020016000205461064e85600160008973ffffffffffffffffffffffffffffffffffffffff1673ffffffffffffffffffffffffffffffffffffffff168152602001908152602001600020546106fd90919063ffffffff16565b60405161065c929190610968565b60405180910390a36106b681600160008573ffffffffffffffffffffffffffffffffffffffff1673ffffffffffffffffffffffffffffffffffffffff168152602001908152602001600020546106fd90919063ffffffff16565b600160008473ffffffffffffffffffffffffffffffffffffffff1673ffffffffffffffffffffffffffffffffffffffff168152602001908152602001600020819055505050565b6000818361070b9190610abe565b905092915050565b6000819050919050565b61072681610713565b82525050565b6000602082019050610741600083018461071d565b92915050565b600080fd5b600073ffffffffffffffffffffffffffffffffffffffff82169050919050565b60006107778261074c565b9050919050565b6107878161076c565b811461079257600080fd5b50565b6000813590506107a48161077e565b92915050565b6107b381610713565b81146107be57600080fd5b50565b6000813590506107d0816107aa565b92915050565b600080604083850312156107ed576107ec610747565b5b60006107fb85828601610795565b925050602061080c858286016107c1565b9150509250929050565b60006020828403121561082c5761082b610747565b5b600061083a84828501610795565b91505092915050565b61084c8161076c565b82525050565b60006020820190506108676000830184610843565b92915050565b60006108788261074c565b9050919050565b6108888161086d565b811461089357600080fd5b50565b6000813590506108a58161087f565b92915050565b600080604083850312156108c2576108c1610747565b5b60006108d085828601610896565b92505060206108e1858286016107c1565b9150509250929050565b600082825260208201905092915050565b7f596f7520617265206e6f7420746865206f776e65720000000000000000000000600082015250565b60006109326015836108eb565b915061093d826108fc565b602082019050919050565b6000602082019050818103600083015261096181610925565b9050919050565b600060408201905061097d600083018561071d565b61098a602083018461071d565b9392505050565b7f596f7520617265206e6f7420616c6c6f77656400000000000000000000000000600082015250565b60006109c76013836108eb565b91506109d282610991565b602082019050919050565b600060208201905081810360008301526109f6816109ba565b9050919050565b7f4e6f742073756666696369656e742066756e647320696e2074686520736d617260008201527f7420636f6e747261637400000000000000000000000000000000000000000000602082015250565b6000610a59602a836108eb565b9150610a64826109fd565b604082019050919050565b60006020820190508181036000830152610a8881610a4c565b9050919050565b7f4e487b7100000000000000000000000000000000000000000000000000000000600052601160045260246000fd5b6000610ac982610713565b9150610ad483610713565b925082821015610ae757610ae6610a8f565b5b82820390509291505056fea264697066735822122038434ec9697ce4b2ec8d3da8d4233cf2f77a506226c48ac3b65e8e86b192dbb664736f6c634300080d0033",
					"opcodes": "PUSH1 0x80 PUSH1 0x40 MSTORE CALLVALUE DUP1 ISZERO PUSH2 0x10 JUMPI PUSH1 0x0 DUP1 REVERT JUMPDEST POP CALLER PUSH1 0x0 DUP1 PUSH2 0x100 EXP DUP2 SLOAD DUP2 PUSH20 0xFFFFFFFFFFFFFFFFFFFFFFFFFFFFFFFFFFFFFFFF MUL NOT AND SWAP1 DUP4 PUSH20 0xFFFFFFFFFFFFFFFFFFFFFFFFFFFFFFFFFFFFFFFF AND MUL OR SWAP1 SSTORE POP PUSH2 0xB28 DUP1 PUSH2 0x60 PUSH1 0x0 CODECOPY PUSH1 0x0 RETURN INVALID PUSH1 0x80 PUSH1 0x40 MSTORE PUSH1 0x4 CALLDATASIZE LT PUSH2 0x55 JUMPI PUSH1 0x0 CALLDATALOAD PUSH1 0xE0 SHR DUP1 PUSH4 0x12065FE0 EQ PUSH2 0x5A JUMPI DUP1 PUSH4 0x310EC4A7 EQ PUSH2 0x85 JUMPI DUP1 PUSH4 0x3E5BEAB9 EQ PUSH2 0xAE JUMPI DUP1 PUSH4 0x8DA5CB5B EQ PUSH2 0xEB JUMPI DUP1 PUSH4 0xCCA955A0 EQ PUSH2 0x116 JUMPI DUP1 PUSH4 0xF274C897 EQ PUSH2 0x120 JUMPI JUMPDEST PUSH1 0x0 DUP1 REVERT JUMPDEST CALLVALUE DUP1 ISZERO PUSH2 0x66 JUMPI PUSH1 0x0 DUP1 REVERT JUMPDEST POP PUSH2 0x6F PUSH2 0x149 JUMP JUMPDEST PUSH1 0x40 MLOAD PUSH2 0x7C SWAP2 SWAP1 PUSH2 0x72C JUMP JUMPDEST PUSH1 0x40 MLOAD DUP1 SWAP2 SUB SWAP1 RETURN JUMPDEST CALLVALUE DUP1 ISZERO PUSH2 0x91 JUMPI PUSH1 0x0 DUP1 REVERT JUMPDEST POP PUSH2 0xAC PUSH1 0x4 DUP1 CALLDATASIZE SUB DUP2 ADD SWAP1 PUSH2 0xA7 SWAP2 SWAP1 PUSH2 0x7D6 JUMP JUMPDEST PUSH2 0x151 JUMP JUMPDEST STOP JUMPDEST CALLVALUE DUP1 ISZERO PUSH2 0xBA JUMPI PUSH1 0x0 DUP1 REVERT JUMPDEST POP PUSH2 0xD5 PUSH1 0x4 DUP1 CALLDATASIZE SUB DUP2 ADD SWAP1 PUSH2 0xD0 SWAP2 SWAP1 PUSH2 0x816 JUMP JUMPDEST PUSH2 0x2CD JUMP JUMPDEST PUSH1 0x40 MLOAD PUSH2 0xE2 SWAP2 SWAP1 PUSH2 0x72C JUMP JUMPDEST PUSH1 0x40 MLOAD DUP1 SWAP2 SUB SWAP1 RETURN JUMPDEST CALLVALUE DUP1 ISZERO PUSH2 0xF7 JUMPI PUSH1 0x0 DUP1 REVERT JUMPDEST POP PUSH2 0x100 PUSH2 0x2E5 JUMP JUMPDEST PUSH1 0x40 MLOAD PUSH2 0x10D SWAP2 SWAP1 PUSH2 0x852 JUMP JUMPDEST PUSH1 0x40 MLOAD DUP1 SWAP2 SUB SWAP1 RETURN JUMPDEST PUSH2 0x11E PUSH2 0x309 JUMP JUMPDEST STOP JUMPDEST CALLVALUE DUP1 ISZERO PUSH2 0x12C JUMPI PUSH1 0x0 DUP1 REVERT JUMPDEST POP PUSH2 0x147 PUSH1 0x4 DUP1 CALLDATASIZE SUB DUP2 ADD SWAP1 PUSH2 0x142 SWAP2 SWAP1 PUSH2 0x8AB JUMP JUMPDEST PUSH2 0x359 JUMP JUMPDEST STOP JUMPDEST PUSH1 0x0 SELFBALANCE SWAP1 POP SWAP1 JUMP JUMPDEST CALLER PUSH20 0xFFFFFFFFFFFFFFFFFFFFFFFFFFFFFFFFFFFFFFFF AND PUSH1 0x0 DUP1 SLOAD SWAP1 PUSH2 0x100 EXP SWAP1 DIV PUSH20 0xFFFFFFFFFFFFFFFFFFFFFFFFFFFFFFFFFFFFFFFF AND PUSH20 0xFFFFFFFFFFFFFFFFFFFFFFFFFFFFFFFFFFFFFFFF AND EQ PUSH2 0x1DF JUMPI PUSH1 0x40 MLOAD PUSH32 0x8C379A000000000000000000000000000000000000000000000000000000000 DUP2 MSTORE PUSH1 0x4 ADD PUSH2 0x1D6 SWAP1 PUSH2 0x948 JUMP JUMPDEST PUSH1 0x40 MLOAD DUP1 SWAP2 SUB SWAP1 REVERT JUMPDEST CALLER PUSH20 0xFFFFFFFFFFFFFFFFFFFFFFFFFFFFFFFFFFFFFFFF AND DUP3 PUSH20 0xFFFFFFFFFFFFFFFFFFFFFFFFFFFFFFFFFFFFFFFF AND PUSH32 0x3691D1A86D99355E52B689CA70A7BDF6D80763237A6AA06E5FA43964EAC7244B PUSH1 0x1 PUSH1 0x0 DUP7 PUSH20 0xFFFFFFFFFFFFFFFFFFFFFFFFFFFFFFFFFFFFFFFF AND PUSH20 0xFFFFFFFFFFFFFFFFFFFFFFFFFFFFFFFFFFFFFFFF AND DUP2 MSTORE PUSH1 0x20 ADD SWAP1 DUP2 MSTORE PUSH1 0x20 ADD PUSH1 0x0 KECCAK256 SLOAD DUP5 PUSH1 0x40 MLOAD PUSH2 0x27D SWAP3 SWAP2 SWAP1 PUSH2 0x968 JUMP JUMPDEST PUSH1 0x40 MLOAD DUP1 SWAP2 SUB SWAP1 LOG3 DUP1 PUSH1 0x1 PUSH1 0x0 DUP5 PUSH20 0xFFFFFFFFFFFFFFFFFFFFFFFFFFFFFFFFFFFFFFFF AND PUSH20 0xFFFFFFFFFFFFFFFFFFFFFFFFFFFFFFFFFFFFFFFF AND DUP2 MSTORE PUSH1 0x20 ADD SWAP1 DUP2 MSTORE PUSH1 0x20 ADD PUSH1 0x0 KECCAK256 DUP2 SWAP1 SSTORE POP POP POP JUMP JUMPDEST PUSH1 0x1 PUSH1 0x20 MSTORE DUP1 PUSH1 0x0 MSTORE PUSH1 0x40 PUSH1 0x0 KECCAK256 PUSH1 0x0 SWAP2 POP SWAP1 POP SLOAD DUP2 JUMP JUMPDEST PUSH1 0x0 DUP1 SLOAD SWAP1 PUSH2 0x100 EXP SWAP1 DIV PUSH20 0xFFFFFFFFFFFFFFFFFFFFFFFFFFFFFFFFFFFFFFFF AND DUP2 JUMP JUMPDEST CALLER PUSH20 0xFFFFFFFFFFFFFFFFFFFFFFFFFFFFFFFFFFFFFFFF AND PUSH32 0x7F51D406915971D4AC1C91AF96BE5187EA6AB64753785AAD519A533DEF80A41E CALLVALUE PUSH1 0x40 MLOAD PUSH2 0x34F SWAP2 SWAP1 PUSH2 0x72C JUMP JUMPDEST PUSH1 0x40 MLOAD DUP1 SWAP2 SUB SWAP1 LOG2 JUMP JUMPDEST DUP1 CALLER PUSH20 0xFFFFFFFFFFFFFFFFFFFFFFFFFFFFFFFFFFFFFFFF AND PUSH1 0x0 DUP1 SLOAD SWAP1 PUSH2 0x100 EXP SWAP1 DIV PUSH20 0xFFFFFFFFFFFFFFFFFFFFFFFFFFFFFFFFFFFFFFFF AND PUSH20 0xFFFFFFFFFFFFFFFFFFFFFFFFFFFFFFFFFFFFFFFF AND EQ DUP1 PUSH2 0x3F3 JUMPI POP DUP1 PUSH1 0x1 PUSH1 0x0 CALLER PUSH20 0xFFFFFFFFFFFFFFFFFFFFFFFFFFFFFFFFFFFFFFFF AND PUSH20 0xFFFFFFFFFFFFFFFFFFFFFFFFFFFFFFFFFFFFFFFF AND DUP2 MSTORE PUSH1 0x20 ADD SWAP1 DUP2 MSTORE PUSH1 0x20 ADD PUSH1 0x0 KECCAK256 SLOAD LT ISZERO JUMPDEST PUSH2 0x432 JUMPI PUSH1 0x40 MLOAD PUSH32 0x8C379A000000000000000000000000000000000000000000000000000000000 DUP2 MSTORE PUSH1 0x4 ADD PUSH2 0x429 SWAP1 PUSH2 0x9DD JUMP JUMPDEST PUSH1 0x40 MLOAD DUP1 SWAP2 SUB SWAP1 REVERT JUMPDEST SELFBALANCE DUP3 GT ISZERO PUSH2 0x475 JUMPI PUSH1 0x40 MLOAD PUSH32 0x8C379A000000000000000000000000000000000000000000000000000000000 DUP2 MSTORE PUSH1 0x4 ADD PUSH2 0x46C SWAP1 PUSH2 0xA6F JUMP JUMPDEST PUSH1 0x40 MLOAD DUP1 SWAP2 SUB SWAP1 REVERT JUMPDEST CALLER PUSH20 0xFFFFFFFFFFFFFFFFFFFFFFFFFFFFFFFFFFFFFFFF AND PUSH1 0x0 DUP1 SLOAD SWAP1 PUSH2 0x100 EXP SWAP1 DIV PUSH20 0xFFFFFFFFFFFFFFFFFFFFFFFFFFFFFFFFFFFFFFFF AND PUSH20 0xFFFFFFFFFFFFFFFFFFFFFFFFFFFFFFFFFFFFFFFF AND EQ PUSH2 0x4D3 JUMPI PUSH2 0x4D2 CALLER DUP4 PUSH2 0x56D JUMP JUMPDEST JUMPDEST DUP3 PUSH20 0xFFFFFFFFFFFFFFFFFFFFFFFFFFFFFFFFFFFFFFFF AND PUSH32 0x7F51D406915971D4AC1C91AF96BE5187EA6AB64753785AAD519A533DEF80A41E DUP4 PUSH1 0x40 MLOAD PUSH2 0x519 SWAP2 SWAP1 PUSH2 0x72C JUMP JUMPDEST PUSH1 0x40 MLOAD DUP1 SWAP2 SUB SWAP1 LOG2 DUP3 PUSH20 0xFFFFFFFFFFFFFFFFFFFFFFFFFFFFFFFFFFFFFFFF AND PUSH2 0x8FC DUP4 SWAP1 DUP2 ISZERO MUL SWAP1 PUSH1 0x40 MLOAD PUSH1 0x0 PUSH1 0x40 MLOAD DUP1 DUP4 SUB DUP2 DUP6 DUP9 DUP9 CALL SWAP4 POP POP POP POP ISZERO DUP1 ISZERO PUSH2 0x567 JUMPI RETURNDATASIZE PUSH1 0x0 DUP1 RETURNDATACOPY RETURNDATASIZE PUSH1 0x0 REVERT JUMPDEST POP POP POP POP JUMP JUMPDEST CALLER PUSH20 0xFFFFFFFFFFFFFFFFFFFFFFFFFFFFFFFFFFFFFFFF AND DUP3 PUSH20 0xFFFFFFFFFFFFFFFFFFFFFFFFFFFFFFFFFFFFFFFF AND PUSH32 0x3691D1A86D99355E52B689CA70A7BDF6D80763237A6AA06E5FA43964EAC7244B PUSH1 0x1 PUSH1 0x0 DUP7 PUSH20 0xFFFFFFFFFFFFFFFFFFFFFFFFFFFFFFFFFFFFFFFF AND PUSH20 0xFFFFFFFFFFFFFFFFFFFFFFFFFFFFFFFFFFFFFFFF AND DUP2 MSTORE PUSH1 0x20 ADD SWAP1 DUP2 MSTORE PUSH1 0x20 ADD PUSH1 0x0 KECCAK256 SLOAD PUSH2 0x64E DUP6 PUSH1 0x1 PUSH1 0x0 DUP10 PUSH20 0xFFFFFFFFFFFFFFFFFFFFFFFFFFFFFFFFFFFFFFFF AND PUSH20 0xFFFFFFFFFFFFFFFFFFFFFFFFFFFFFFFFFFFFFFFF AND DUP2 MSTORE PUSH1 0x20 ADD SWAP1 DUP2 MSTORE PUSH1 0x20 ADD PUSH1 0x0 KECCAK256 SLOAD PUSH2 0x6FD SWAP1 SWAP2 SWAP1 PUSH4 0xFFFFFFFF AND JUMP JUMPDEST PUSH1 0x40 MLOAD PUSH2 0x65C SWAP3 SWAP2 SWAP1 PUSH2 0x968 JUMP JUMPDEST PUSH1 0x40 MLOAD DUP1 SWAP2 SUB SWAP1 LOG3 PUSH2 0x6B6 DUP2 PUSH1 0x1 PUSH1 0x0 DUP6 PUSH20 0xFFFFFFFFFFFFFFFFFFFFFFFFFFFFFFFFFFFFFFFF AND PUSH20 0xFFFFFFFFFFFFFFFFFFFFFFFFFFFFFFFFFFFFFFFF AND DUP2 MSTORE PUSH1 0x20 ADD SWAP1 DUP2 MSTORE PUSH1 0x20 ADD PUSH1 0x0 KECCAK256 SLOAD PUSH2 0x6FD SWAP1 SWAP2 SWAP1 PUSH4 0xFFFFFFFF AND JUMP JUMPDEST PUSH1 0x1 PUSH1 0x0 DUP5 PUSH20 0xFFFFFFFFFFFFFFFFFFFFFFFFFFFFFFFFFFFFFFFF AND PUSH20 0xFFFFFFFFFFFFFFFFFFFFFFFFFFFFFFFFFFFFFFFF AND DUP2 MSTORE PUSH1 0x20 ADD SWAP1 DUP2 MSTORE PUSH1 0x20 ADD PUSH1 0x0 KECCAK256 DUP2 SWAP1 SSTORE POP POP POP JUMP JUMPDEST PUSH1 0x0 DUP2 DUP4 PUSH2 0x70B SWAP2 SWAP1 PUSH2 0xABE JUMP JUMPDEST SWAP1 POP SWAP3 SWAP2 POP POP JUMP JUMPDEST PUSH1 0x0 DUP2 SWAP1 POP SWAP2 SWAP1 POP JUMP JUMPDEST PUSH2 0x726 DUP2 PUSH2 0x713 JUMP JUMPDEST DUP3 MSTORE POP POP JUMP JUMPDEST PUSH1 0x0 PUSH1 0x20 DUP3 ADD SWAP1 POP PUSH2 0x741 PUSH1 0x0 DUP4 ADD DUP5 PUSH2 0x71D JUMP JUMPDEST SWAP3 SWAP2 POP POP JUMP JUMPDEST PUSH1 0x0 DUP1 REVERT JUMPDEST PUSH1 0x0 PUSH20 0xFFFFFFFFFFFFFFFFFFFFFFFFFFFFFFFFFFFFFFFF DUP3 AND SWAP1 POP SWAP2 SWAP1 POP JUMP JUMPDEST PUSH1 0x0 PUSH2 0x777 DUP3 PUSH2 0x74C JUMP JUMPDEST SWAP1 POP SWAP2 SWAP1 POP JUMP JUMPDEST PUSH2 0x787 DUP2 PUSH2 0x76C JUMP JUMPDEST DUP2 EQ PUSH2 0x792 JUMPI PUSH1 0x0 DUP1 REVERT JUMPDEST POP JUMP JUMPDEST PUSH1 0x0 DUP2 CALLDATALOAD SWAP1 POP PUSH2 0x7A4 DUP2 PUSH2 0x77E JUMP JUMPDEST SWAP3 SWAP2 POP POP JUMP JUMPDEST PUSH2 0x7B3 DUP2 PUSH2 0x713 JUMP JUMPDEST DUP2 EQ PUSH2 0x7BE JUMPI PUSH1 0x0 DUP1 REVERT JUMPDEST POP JUMP JUMPDEST PUSH1 0x0 DUP2 CALLDATALOAD SWAP1 POP PUSH2 0x7D0 DUP2 PUSH2 0x7AA JUMP JUMPDEST SWAP3 SWAP2 POP POP JUMP JUMPDEST PUSH1 0x0 DUP1 PUSH1 0x40 DUP4 DUP6 SUB SLT ISZERO PUSH2 0x7ED JUMPI PUSH2 0x7EC PUSH2 0x747 JUMP JUMPDEST JUMPDEST PUSH1 0x0 PUSH2 0x7FB DUP6 DUP3 DUP7 ADD PUSH2 0x795 JUMP JUMPDEST SWAP3 POP POP PUSH1 0x20 PUSH2 0x80C DUP6 DUP3 DUP7 ADD PUSH2 0x7C1 JUMP JUMPDEST SWAP2 POP POP SWAP3 POP SWAP3 SWAP1 POP JUMP JUMPDEST PUSH1 0x0 PUSH1 0x20 DUP3 DUP5 SUB SLT ISZERO PUSH2 0x82C JUMPI PUSH2 0x82B PUSH2 0x747 JUMP JUMPDEST JUMPDEST PUSH1 0x0 PUSH2 0x83A DUP5 DUP3 DUP6 ADD PUSH2 0x795 JUMP JUMPDEST SWAP2 POP POP SWAP3 SWAP2 POP POP JUMP JUMPDEST PUSH2 0x84C DUP2 PUSH2 0x76C JUMP JUMPDEST DUP3 MSTORE POP POP JUMP JUMPDEST PUSH1 0x0 PUSH1 0x20 DUP3 ADD SWAP1 POP PUSH2 0x867 PUSH1 0x0 DUP4 ADD DUP5 PUSH2 0x843 JUMP JUMPDEST SWAP3 SWAP2 POP POP JUMP JUMPDEST PUSH1 0x0 PUSH2 0x878 DUP3 PUSH2 0x74C JUMP JUMPDEST SWAP1 POP SWAP2 SWAP1 POP JUMP JUMPDEST PUSH2 0x888 DUP2 PUSH2 0x86D JUMP JUMPDEST DUP2 EQ PUSH2 0x893 JUMPI PUSH1 0x0 DUP1 REVERT JUMPDEST POP JUMP JUMPDEST PUSH1 0x0 DUP2 CALLDATALOAD SWAP1 POP PUSH2 0x8A5 DUP2 PUSH2 0x87F JUMP JUMPDEST SWAP3 SWAP2 POP POP JUMP JUMPDEST PUSH1 0x0 DUP1 PUSH1 0x40 DUP4 DUP6 SUB SLT ISZERO PUSH2 0x8C2 JUMPI PUSH2 0x8C1 PUSH2 0x747 JUMP JUMPDEST JUMPDEST PUSH1 0x0 PUSH2 0x8D0 DUP6 DUP3 DUP7 ADD PUSH2 0x896 JUMP JUMPDEST SWAP3 POP POP PUSH1 0x20 PUSH2 0x8E1 DUP6 DUP3 DUP7 ADD PUSH2 0x7C1 JUMP JUMPDEST SWAP2 POP POP SWAP3 POP SWAP3 SWAP1 POP JUMP JUMPDEST PUSH1 0x0 DUP3 DUP3 MSTORE PUSH1 0x20 DUP3 ADD SWAP1 POP SWAP3 SWAP2 POP POP JUMP JUMPDEST PUSH32 0x596F7520617265206E6F7420746865206F776E65720000000000000000000000 PUSH1 0x0 DUP3 ADD MSTORE POP JUMP JUMPDEST PUSH1 0x0 PUSH2 0x932 PUSH1 0x15 DUP4 PUSH2 0x8EB JUMP JUMPDEST SWAP2 POP PUSH2 0x93D DUP3 PUSH2 0x8FC JUMP JUMPDEST PUSH1 0x20 DUP3 ADD SWAP1 POP SWAP2 SWAP1 POP JUMP JUMPDEST PUSH1 0x0 PUSH1 0x20 DUP3 ADD SWAP1 POP DUP2 DUP2 SUB PUSH1 0x0 DUP4 ADD MSTORE PUSH2 0x961 DUP2 PUSH2 0x925 JUMP JUMPDEST SWAP1 POP SWAP2 SWAP1 POP JUMP JUMPDEST PUSH1 0x0 PUSH1 0x40 DUP3 ADD SWAP1 POP PUSH2 0x97D PUSH1 0x0 DUP4 ADD DUP6 PUSH2 0x71D JUMP JUMPDEST PUSH2 0x98A PUSH1 0x20 DUP4 ADD DUP5 PUSH2 0x71D JUMP JUMPDEST SWAP4 SWAP3 POP POP POP JUMP JUMPDEST PUSH32 0x596F7520617265206E6F7420616C6C6F77656400000000000000000000000000 PUSH1 0x0 DUP3 ADD MSTORE POP JUMP JUMPDEST PUSH1 0x0 PUSH2 0x9C7 PUSH1 0x13 DUP4 PUSH2 0x8EB JUMP JUMPDEST SWAP2 POP PUSH2 0x9D2 DUP3 PUSH2 0x991 JUMP JUMPDEST PUSH1 0x20 DUP3 ADD SWAP1 POP SWAP2 SWAP1 POP JUMP JUMPDEST PUSH1 0x0 PUSH1 0x20 DUP3 ADD SWAP1 POP DUP2 DUP2 SUB PUSH1 0x0 DUP4 ADD MSTORE PUSH2 0x9F6 DUP2 PUSH2 0x9BA JUMP JUMPDEST SWAP1 POP SWAP2 SWAP1 POP JUMP JUMPDEST PUSH32 0x4E6F742073756666696369656E742066756E647320696E2074686520736D6172 PUSH1 0x0 DUP3 ADD MSTORE PUSH32 0x7420636F6E747261637400000000000000000000000000000000000000000000 PUSH1 0x20 DUP3 ADD MSTORE POP JUMP JUMPDEST PUSH1 0x0 PUSH2 0xA59 PUSH1 0x2A DUP4 PUSH2 0x8EB JUMP JUMPDEST SWAP2 POP PUSH2 0xA64 DUP3 PUSH2 0x9FD JUMP JUMPDEST PUSH1 0x40 DUP3 ADD SWAP1 POP SWAP2 SWAP1 POP JUMP JUMPDEST PUSH1 0x0 PUSH1 0x20 DUP3 ADD SWAP1 POP DUP2 DUP2 SUB PUSH1 0x0 DUP4 ADD MSTORE PUSH2 0xA88 DUP2 PUSH2 0xA4C JUMP JUMPDEST SWAP1 POP SWAP2 SWAP1 POP JUMP JUMPDEST PUSH32 0x4E487B7100000000000000000000000000000000000000000000000000000000 PUSH1 0x0 MSTORE PUSH1 0x11 PUSH1 0x4 MSTORE PUSH1 0x24 PUSH1 0x0 REVERT JUMPDEST PUSH1 0x0 PUSH2 0xAC9 DUP3 PUSH2 0x713 JUMP JUMPDEST SWAP2 POP PUSH2 0xAD4 DUP4 PUSH2 0x713 JUMP JUMPDEST SWAP3 POP DUP3 DUP3 LT ISZERO PUSH2 0xAE7 JUMPI PUSH2 0xAE6 PUSH2 0xA8F JUMP JUMPDEST JUMPDEST DUP3 DUP3 SUB SWAP1 POP SWAP3 SWAP2 POP POP JUMP INVALID LOG2 PUSH5 0x6970667358 0x22 SLT KECCAK256 CODESIZE NUMBER 0x4E 0xC9 PUSH10 0x7CE4B2EC8D3DA8D4233C CALLCODE 0xF7 PUSH27 0x506226C48AC3B65E8E86B192DBB664736F6C634300080D00330000 "
				},
				"gasEstimates": {
					"creation": {
						"codeDepositCost": "571200",
						"executionCost": "24872",
						"totalCost": "596072"
					},
					"external": {
						"allowance(address)": "2836",
						"getBalance()": "317",
						"owner()": "2555",
						"recieveMoney()": "1759",
						"setAllowance(address,uint256)": "infinite",
						"withdrawMoney(address,uint256)": "infinite"
					}
				},
				"methodIdentifiers": {
					"allowance(address)": "3e5beab9",
					"getBalance()": "12065fe0",
					"owner()": "8da5cb5b",
					"recieveMoney()": "cca955a0",
					"setAllowance(address,uint256)": "310ec4a7",
					"withdrawMoney(address,uint256)": "f274c897"
				}
			},
			"userdoc": {
				"kind": "user",
				"methods": {},
				"version": 1
			}
		}
	}
}