{
	"contracts/WorkingWithVariables.sol": {
		"WorkingWithVariables": {
			"abi": [
				{
					"constant": false,
					"inputs": [],
					"name": "decrementUint",
					"outputs": [],
					"payable": false,
					"stateMutability": "nonpayable",
					"type": "function"
				},
				{
					"constant": false,
					"inputs": [],
					"name": "incrementUInt",
					"outputs": [],
					"payable": false,
					"stateMutability": "nonpayable",
					"type": "function"
				},
				{
					"constant": true,
					"inputs": [],
					"name": "myBoolean",
					"outputs": [
						{
							"internalType": "bool",
							"name": "",
							"type": "bool"
						}
					],
					"payable": false,
					"stateMutability": "view",
					"type": "function"
				},
				{
					"constant": true,
					"inputs": [],
					"name": "myUInt",
					"outputs": [
						{
							"internalType": "uint256",
							"name": "",
							"type": "uint256"
						}
					],
					"payable": false,
					"stateMutability": "view",
					"type": "function"
				},
				{
					"constant": true,
					"inputs": [],
					"name": "myUInt8",
					"outputs": [
						{
							"internalType": "uint8",
							"name": "",
							"type": "uint8"
						}
					],
					"payable": false,
					"stateMutability": "view",
					"type": "function"
				},
				{
					"constant": false,
					"inputs": [
						{
							"internalType": "bool",
							"name": "_myBoolean",
							"type": "bool"
						}
					],
					"name": "setMyBool",
					"outputs": [],
					"payable": false,
					"stateMutability": "nonpayable",
					"type": "function"
				},
				{
					"constant": false,
					"inputs": [
						{
							"internalType": "uint256",
							"name": "_myUInt",
							"type": "uint256"
						}
					],
					"name": "setMyUInt",
					"outputs": [],
					"payable": false,
					"stateMutability": "nonpayable",
					"type": "function"
				}
			],
			"devdoc": {
				"methods": {}
			},
			"evm": {
				"assembly": "    /* \"contracts/WorkingWithVariables.sol\":28:458  contract WorkingWithVariables {\r... */\n  mstore(0x40, 0x80)\n  callvalue\n    /* \"--CODEGEN--\":8:17   */\n  dup1\n    /* \"--CODEGEN--\":5:7   */\n  iszero\n  tag_1\n  jumpi\n    /* \"--CODEGEN--\":30:31   */\n  0x00\n    /* \"--CODEGEN--\":27:28   */\n  dup1\n    /* \"--CODEGEN--\":20:32   */\n  revert\n    /* \"--CODEGEN--\":5:7   */\ntag_1:\n    /* \"contracts/WorkingWithVariables.sol\":28:458  contract WorkingWithVariables {\r... */\n  pop\n  dataSize(sub_0)\n  dup1\n  dataOffset(sub_0)\n  0x00\n  codecopy\n  0x00\n  return\nstop\n\nsub_0: assembly {\n        /* \"contracts/WorkingWithVariables.sol\":28:458  contract WorkingWithVariables {\r... */\n      mstore(0x40, 0x80)\n      callvalue\n        /* \"--CODEGEN--\":8:17   */\n      dup1\n        /* \"--CODEGEN--\":5:7   */\n      iszero\n      tag_1\n      jumpi\n        /* \"--CODEGEN--\":30:31   */\n      0x00\n        /* \"--CODEGEN--\":27:28   */\n      dup1\n        /* \"--CODEGEN--\":20:32   */\n      revert\n        /* \"--CODEGEN--\":5:7   */\n    tag_1:\n        /* \"contracts/WorkingWithVariables.sol\":28:458  contract WorkingWithVariables {\r... */\n      pop\n      jumpi(tag_2, lt(calldatasize, 0x04))\n      shr(0xe0, calldataload(0x00))\n      dup1\n      0xda50eaee\n      gt\n      tag_10\n      jumpi\n      dup1\n      0xda50eaee\n      eq\n      tag_6\n      jumpi\n      dup1\n      0xdc99be11\n      eq\n      tag_7\n      jumpi\n      dup1\n      0xe7b167fc\n      eq\n      tag_8\n      jumpi\n      dup1\n      0xeb1b30d9\n      eq\n      tag_9\n      jumpi\n      jump(tag_2)\n    tag_10:\n      dup1\n      0x3c925533\n      eq\n      tag_3\n      jumpi\n      dup1\n      0x662a8a50\n      eq\n      tag_4\n      jumpi\n      dup1\n      0x96b57def\n      eq\n      tag_5\n      jumpi\n    tag_2:\n      0x00\n      dup1\n      revert\n        /* \"contracts/WorkingWithVariables.sol\":296:316  uint8 public myUInt8 */\n    tag_3:\n      tag_11\n      tag_12\n      jump\t// in\n    tag_11:\n      mload(0x40)\n      dup1\n      dup3\n      0xff\n      and\n      0xff\n      and\n      dup2\n      mstore\n      0x20\n      add\n      swap2\n      pop\n      pop\n      mload(0x40)\n      dup1\n      swap2\n      sub\n      swap1\n      return\n        /* \"contracts/WorkingWithVariables.sol\":327:384  function incrementUInt() public{\r... */\n    tag_4:\n      tag_13\n      tag_14\n      jump\t// in\n    tag_13:\n      stop\n        /* \"contracts/WorkingWithVariables.sol\":64:85  uint256 public myUInt */\n    tag_5:\n      tag_15\n      tag_16\n      jump\t// in\n    tag_15:\n      mload(0x40)\n      dup1\n      dup3\n      dup2\n      mstore\n      0x20\n      add\n      swap2\n      pop\n      pop\n      mload(0x40)\n      dup1\n      swap2\n      sub\n      swap1\n      return\n        /* \"contracts/WorkingWithVariables.sol\":391:449  function decrementUint() public {\r... */\n    tag_6:\n      tag_17\n      tag_18\n      jump\t// in\n    tag_17:\n      stop\n        /* \"contracts/WorkingWithVariables.sol\":178:199  bool public myBoolean */\n    tag_7:\n      tag_19\n      tag_20\n      jump\t// in\n    tag_19:\n      mload(0x40)\n      dup1\n      dup3\n      iszero\n      iszero\n      iszero\n      iszero\n      dup2\n      mstore\n      0x20\n      add\n      swap2\n      pop\n      pop\n      mload(0x40)\n      dup1\n      swap2\n      sub\n      swap1\n      return\n        /* \"contracts/WorkingWithVariables.sol\":93:166  function setMyUInt(uint _myUInt) public {\r... */\n    tag_8:\n      tag_21\n      0x04\n      dup1\n      calldatasize\n      sub\n        /* \"--CODEGEN--\":13:15   */\n      0x20\n        /* \"--CODEGEN--\":8:11   */\n      dup2\n        /* \"--CODEGEN--\":5:16   */\n      lt\n        /* \"--CODEGEN--\":2:4   */\n      iszero\n      tag_22\n      jumpi\n        /* \"--CODEGEN--\":29:30   */\n      0x00\n        /* \"--CODEGEN--\":26:27   */\n      dup1\n        /* \"--CODEGEN--\":19:31   */\n      revert\n        /* \"--CODEGEN--\":2:4   */\n    tag_22:\n        /* \"contracts/WorkingWithVariables.sol\":93:166  function setMyUInt(uint _myUInt) public {\r... */\n      dup2\n      add\n      swap1\n      dup1\n      dup1\n      calldataload\n      swap1\n      0x20\n      add\n      swap1\n      swap3\n      swap2\n      swap1\n      pop\n      pop\n      pop\n      tag_23\n      jump\t// in\n    tag_21:\n      stop\n        /* \"contracts/WorkingWithVariables.sol\":207:289  function setMyBool(bool _myBoolean) public {\r... */\n    tag_9:\n      tag_24\n      0x04\n      dup1\n      calldatasize\n      sub\n        /* \"--CODEGEN--\":13:15   */\n      0x20\n        /* \"--CODEGEN--\":8:11   */\n      dup2\n        /* \"--CODEGEN--\":5:16   */\n      lt\n        /* \"--CODEGEN--\":2:4   */\n      iszero\n      tag_25\n      jumpi\n        /* \"--CODEGEN--\":29:30   */\n      0x00\n        /* \"--CODEGEN--\":26:27   */\n      dup1\n        /* \"--CODEGEN--\":19:31   */\n      revert\n        /* \"--CODEGEN--\":2:4   */\n    tag_25:\n        /* \"contracts/WorkingWithVariables.sol\":207:289  function setMyBool(bool _myBoolean) public {\r... */\n      dup2\n      add\n      swap1\n      dup1\n      dup1\n      calldataload\n      iszero\n      iszero\n      swap1\n      0x20\n      add\n      swap1\n      swap3\n      swap2\n      swap1\n      pop\n      pop\n      pop\n      tag_26\n      jump\t// in\n    tag_24:\n      stop\n        /* \"contracts/WorkingWithVariables.sol\":296:316  uint8 public myUInt8 */\n    tag_12:\n      0x01\n      dup1\n      swap1\n      sload\n      swap1\n      0x0100\n      exp\n      swap1\n      div\n      0xff\n      and\n      dup2\n      jump\t// out\n        /* \"contracts/WorkingWithVariables.sol\":327:384  function incrementUInt() public{\r... */\n    tag_14:\n        /* \"contracts/WorkingWithVariables.sol\":368:375  myUInt8 */\n      0x01\n      dup1\n        /* \"contracts/WorkingWithVariables.sol\":368:377  myUInt8++ */\n      dup2\n      dup2\n      swap1\n      sload\n      swap1\n      0x0100\n      exp\n      swap1\n      div\n      0xff\n      and\n      dup1\n      swap3\n      swap2\n      swap1\n      0x01\n      add\n      swap2\n      swap1\n      0x0100\n      exp\n      dup2\n      sload\n      dup2\n      0xff\n      mul\n      not\n      and\n      swap1\n      dup4\n      0xff\n      and\n      mul\n      or\n      swap1\n      sstore\n      pop\n      pop\n        /* \"contracts/WorkingWithVariables.sol\":327:384  function incrementUInt() public{\r... */\n      jump\t// out\n        /* \"contracts/WorkingWithVariables.sol\":64:85  uint256 public myUInt */\n    tag_16:\n      sload(0x00)\n      dup2\n      jump\t// out\n        /* \"contracts/WorkingWithVariables.sol\":391:449  function decrementUint() public {\r... */\n    tag_18:\n        /* \"contracts/WorkingWithVariables.sol\":433:440  myUInt8 */\n      0x01\n      dup1\n        /* \"contracts/WorkingWithVariables.sol\":433:442  myUInt8-- */\n      dup2\n      dup2\n      swap1\n      sload\n      swap1\n      0x0100\n      exp\n      swap1\n      div\n      0xff\n      and\n      dup1\n      swap3\n      swap2\n      swap1\n      0x01\n      swap1\n      sub\n      swap2\n      swap1\n      0x0100\n      exp\n      dup2\n      sload\n      dup2\n      0xff\n      mul\n      not\n      and\n      swap1\n      dup4\n      0xff\n      and\n      mul\n      or\n      swap1\n      sstore\n      pop\n      pop\n        /* \"contracts/WorkingWithVariables.sol\":391:449  function decrementUint() public {\r... */\n      jump\t// out\n        /* \"contracts/WorkingWithVariables.sol\":178:199  bool public myBoolean */\n    tag_20:\n      0x01\n      0x00\n      swap1\n      sload\n      swap1\n      0x0100\n      exp\n      swap1\n      div\n      0xff\n      and\n      dup2\n      jump\t// out\n        /* \"contracts/WorkingWithVariables.sol\":93:166  function setMyUInt(uint _myUInt) public {\r... */\n    tag_23:\n        /* \"contracts/WorkingWithVariables.sol\":152:159  _myUInt */\n      dup1\n        /* \"contracts/WorkingWithVariables.sol\":143:149  myUInt */\n      0x00\n        /* \"contracts/WorkingWithVariables.sol\":143:159  myUInt = _myUInt */\n      dup2\n      swap1\n      sstore\n      pop\n        /* \"contracts/WorkingWithVariables.sol\":93:166  function setMyUInt(uint _myUInt) public {\r... */\n      pop\n      jump\t// out\n        /* \"contracts/WorkingWithVariables.sol\":207:289  function setMyBool(bool _myBoolean) public {\r... */\n    tag_26:\n        /* \"contracts/WorkingWithVariables.sol\":272:282  _myBoolean */\n      dup1\n        /* \"contracts/WorkingWithVariables.sol\":260:269  myBoolean */\n      0x01\n      0x00\n        /* \"contracts/WorkingWithVariables.sol\":260:282  myBoolean = _myBoolean */\n      0x0100\n      exp\n      dup2\n      sload\n      dup2\n      0xff\n      mul\n      not\n      and\n      swap1\n      dup4\n      iszero\n      iszero\n      mul\n      or\n      swap1\n      sstore\n      pop\n        /* \"contracts/WorkingWithVariables.sol\":207:289  function setMyBool(bool _myBoolean) public {\r... */\n      pop\n      jump\t// out\n\n    auxdata: 0xa265627a7a72315820aea0cc57664f11ac384409f8c2c32296b33ce671fa4f6199135561f38e340f0664736f6c63430005110032\n}\n",
				"bytecode": {
					"linkReferences": {},
					"object": "608060405234801561001057600080fd5b50610246806100206000396000f3fe608060405234801561001057600080fd5b506004361061007d5760003560e01c8063da50eaee1161005b578063da50eaee146100ce578063dc99be11146100d8578063e7b167fc146100fa578063eb1b30d9146101285761007d565b80633c92553314610082578063662a8a50146100a657806396b57def146100b0575b600080fd5b61008a610158565b604051808260ff1660ff16815260200191505060405180910390f35b6100ae61016a565b005b6100b861019d565b6040518082815260200191505060405180910390f35b6100d66101a3565b005b6100e06101d7565b604051808215151515815260200191505060405180910390f35b6101266004803603602081101561011057600080fd5b81019080803590602001909291905050506101ea565b005b6101566004803603602081101561013e57600080fd5b810190808035151590602001909291905050506101f4565b005b6001809054906101000a900460ff1681565b60018081819054906101000a900460ff168092919060010191906101000a81548160ff021916908360ff16021790555050565b60005481565b60018081819054906101000a900460ff16809291906001900391906101000a81548160ff021916908360ff16021790555050565b600160009054906101000a900460ff1681565b8060008190555050565b80600160006101000a81548160ff0219169083151502179055505056fea265627a7a72315820aea0cc57664f11ac384409f8c2c32296b33ce671fa4f6199135561f38e340f0664736f6c63430005110032",
					"opcodes": "PUSH1 0x80 PUSH1 0x40 MSTORE CALLVALUE DUP1 ISZERO PUSH2 0x10 JUMPI PUSH1 0x0 DUP1 REVERT JUMPDEST POP PUSH2 0x246 DUP1 PUSH2 0x20 PUSH1 0x0 CODECOPY PUSH1 0x0 RETURN INVALID PUSH1 0x80 PUSH1 0x40 MSTORE CALLVALUE DUP1 ISZERO PUSH2 0x10 JUMPI PUSH1 0x0 DUP1 REVERT JUMPDEST POP PUSH1 0x4 CALLDATASIZE LT PUSH2 0x7D JUMPI PUSH1 0x0 CALLDATALOAD PUSH1 0xE0 SHR DUP1 PUSH4 0xDA50EAEE GT PUSH2 0x5B JUMPI DUP1 PUSH4 0xDA50EAEE EQ PUSH2 0xCE JUMPI DUP1 PUSH4 0xDC99BE11 EQ PUSH2 0xD8 JUMPI DUP1 PUSH4 0xE7B167FC EQ PUSH2 0xFA JUMPI DUP1 PUSH4 0xEB1B30D9 EQ PUSH2 0x128 JUMPI PUSH2 0x7D JUMP JUMPDEST DUP1 PUSH4 0x3C925533 EQ PUSH2 0x82 JUMPI DUP1 PUSH4 0x662A8A50 EQ PUSH2 0xA6 JUMPI DUP1 PUSH4 0x96B57DEF EQ PUSH2 0xB0 JUMPI JUMPDEST PUSH1 0x0 DUP1 REVERT JUMPDEST PUSH2 0x8A PUSH2 0x158 JUMP JUMPDEST PUSH1 0x40 MLOAD DUP1 DUP3 PUSH1 0xFF AND PUSH1 0xFF AND DUP2 MSTORE PUSH1 0x20 ADD SWAP2 POP POP PUSH1 0x40 MLOAD DUP1 SWAP2 SUB SWAP1 RETURN JUMPDEST PUSH2 0xAE PUSH2 0x16A JUMP JUMPDEST STOP JUMPDEST PUSH2 0xB8 PUSH2 0x19D JUMP JUMPDEST PUSH1 0x40 MLOAD DUP1 DUP3 DUP2 MSTORE PUSH1 0x20 ADD SWAP2 POP POP PUSH1 0x40 MLOAD DUP1 SWAP2 SUB SWAP1 RETURN JUMPDEST PUSH2 0xD6 PUSH2 0x1A3 JUMP JUMPDEST STOP JUMPDEST PUSH2 0xE0 PUSH2 0x1D7 JUMP JUMPDEST PUSH1 0x40 MLOAD DUP1 DUP3 ISZERO ISZERO ISZERO ISZERO DUP2 MSTORE PUSH1 0x20 ADD SWAP2 POP POP PUSH1 0x40 MLOAD DUP1 SWAP2 SUB SWAP1 RETURN JUMPDEST PUSH2 0x126 PUSH1 0x4 DUP1 CALLDATASIZE SUB PUSH1 0x20 DUP2 LT ISZERO PUSH2 0x110 JUMPI PUSH1 0x0 DUP1 REVERT JUMPDEST DUP2 ADD SWAP1 DUP1 DUP1 CALLDATALOAD SWAP1 PUSH1 0x20 ADD SWAP1 SWAP3 SWAP2 SWAP1 POP POP POP PUSH2 0x1EA JUMP JUMPDEST STOP JUMPDEST PUSH2 0x156 PUSH1 0x4 DUP1 CALLDATASIZE SUB PUSH1 0x20 DUP2 LT ISZERO PUSH2 0x13E JUMPI PUSH1 0x0 DUP1 REVERT JUMPDEST DUP2 ADD SWAP1 DUP1 DUP1 CALLDATALOAD ISZERO ISZERO SWAP1 PUSH1 0x20 ADD SWAP1 SWAP3 SWAP2 SWAP1 POP POP POP PUSH2 0x1F4 JUMP JUMPDEST STOP JUMPDEST PUSH1 0x1 DUP1 SWAP1 SLOAD SWAP1 PUSH2 0x100 EXP SWAP1 DIV PUSH1 0xFF AND DUP2 JUMP JUMPDEST PUSH1 0x1 DUP1 DUP2 DUP2 SWAP1 SLOAD SWAP1 PUSH2 0x100 EXP SWAP1 DIV PUSH1 0xFF AND DUP1 SWAP3 SWAP2 SWAP1 PUSH1 0x1 ADD SWAP2 SWAP1 PUSH2 0x100 EXP DUP2 SLOAD DUP2 PUSH1 0xFF MUL NOT AND SWAP1 DUP4 PUSH1 0xFF AND MUL OR SWAP1 SSTORE POP POP JUMP JUMPDEST PUSH1 0x0 SLOAD DUP2 JUMP JUMPDEST PUSH1 0x1 DUP1 DUP2 DUP2 SWAP1 SLOAD SWAP1 PUSH2 0x100 EXP SWAP1 DIV PUSH1 0xFF AND DUP1 SWAP3 SWAP2 SWAP1 PUSH1 0x1 SWAP1 SUB SWAP2 SWAP1 PUSH2 0x100 EXP DUP2 SLOAD DUP2 PUSH1 0xFF MUL NOT AND SWAP1 DUP4 PUSH1 0xFF AND MUL OR SWAP1 SSTORE POP POP JUMP JUMPDEST PUSH1 0x1 PUSH1 0x0 SWAP1 SLOAD SWAP1 PUSH2 0x100 EXP SWAP1 DIV PUSH1 0xFF AND DUP2 JUMP JUMPDEST DUP1 PUSH1 0x0 DUP2 SWAP1 SSTORE POP POP JUMP JUMPDEST DUP1 PUSH1 0x1 PUSH1 0x0 PUSH2 0x100 EXP DUP2 SLOAD DUP2 PUSH1 0xFF MUL NOT AND SWAP1 DUP4 ISZERO ISZERO MUL OR SWAP1 SSTORE POP POP JUMP INVALID LOG2 PUSH6 0x627A7A723158 KECCAK256 0xAE LOG0 0xCC JUMPI PUSH7 0x4F11AC384409F8 0xC2 0xC3 0x22 SWAP7 0xB3 EXTCODECOPY 0xE6 PUSH18 0xFA4F6199135561F38E340F0664736F6C6343 STOP SDIV GT STOP ORIGIN "
				},
				"gasEstimates": {
					"creation": {
						"codeDepositCost": "116400",
						"executionCost": "165",
						"totalCost": "116565"
					},
					"external": {
						"decrementUint()": "21976",
						"incrementUInt()": "21996",
						"myBoolean()": "1075",
						"myUInt()": "1050",
						"myUInt8()": "1104",
						"setMyBool(bool)": "21167",
						"setMyUInt(uint256)": "20286"
					}
				},
				"methodIdentifiers": {
					"decrementUint()": "da50eaee",
					"incrementUInt()": "662a8a50",
					"myBoolean()": "dc99be11",
					"myUInt()": "96b57def",
					"myUInt8()": "3c925533",
					"setMyBool(bool)": "eb1b30d9",
					"setMyUInt(uint256)": "e7b167fc"
				}
			},
			"userdoc": {
				"methods": {}
			}
		}
	}
}